:020000040000FA
:060000000A128A110C280F
:10000800FE00030EF1000A08F2000A128A111528F0
:100018000A128A110F28F401F50183010A128A11C4
:10002800A0280B1C182819282A2883120313861CB9
:100038001E281F282A280130F00070088507103074
:100048000502031C282829282A2885010B1C2D288D
:100058002E283E2883120313061C332834283E28F2
:100068000508031D382839283C280F3085003E280C
:10007800013085020B10831203138C1D4428452878
:1000880099281412141B49284A284E28941F4D28D1
:100098004E2855281308F0007008F500141394131F
:1000A800141683160313941A5A285B2876281419F1
:1000B8005E285F287628831203131308F00070085F
:1000C800F5008C11141683160313141C6C286D2864
:1000D800672883120313130888005330F000F00BCD
:1000E80073289628941A79287A289628141D7D282A
:1000F8007E289628831203131308F0007008F50071
:10010800831603131410831203130508930014169F
:100118005330F000F00B8E2883160313141895281B
:1001280096289028831203138C1172088A00710E86
:100138008300FE0E7E0E09008316031788018901CD
:100148008316031385010330860088010330960067
:100158008312031385018601880160300A128A110F
:10016800BB200A128A11B7280A128A110C28F30038
:100178007308831603139300363083120313940015
:1001880080308316031394000130910087150716F9
:100198008B170B17831203138C11831603138C15FB
:0201A80008004D
:04400E00D4E0FFFFFC
:00000001FF
