:020000040000FA
:060000000A128A110C280F
:10000800FE00030EF1000A08F2000A128A111528F0
:100018000A128A110F28F701F80183010A128A11BE
:100028007628831203138C1D1A281B286F28141294
:10003800141B1F2820282428941F232824282B2811
:100048001308F0007008F80014139413141683169C
:100058000313941A302831284C28141934283528C9
:100068004C28831203131308F0007008F8008C1151
:10007800141683160313141C422843283D288312A0
:100088000313130888005330F000F00B49286C283C
:10009800941A4F2850286C28141D532854286C286B
:1000A800831203131308F0007008F8008316031373
:1000B8001410831203130608930014165330F0002B
:1000C800F00B64288316031314186B286C28662811
:1000D800831203138C1172088A00710E8300FE0EBE
:1000E8007E0E0900831603178801890183160313FE
:1000F80086018801831203138601880150300A1291
:100108008A119C200A128A1183120313860903306C
:10011800F6008A30F5005530F400F40B9128F50B01
:100128009128F60B9128982888280A128A110C28F9
:10013800F3007308831603139300363083120313F6
:1001480094008030831603139400013091008715C2
:1001580007168B170B17831203138C1183160313BF
:040168008C150800EA
:04400E00D4E0FFFFFC
:00000001FF
