:020000040000FA
:060000000A128A110C280F
:10000800FE00030EF1000A08F2000A128A11B52850
:100018000A128A110F28F601F701F801F901830184
:100028000A128A111D29F5008B170B178316031363
:100038000C17831203130C139F131F171F14742814
:100048009F121F129F111F11AE289F121F129F117E
:100058001F15AE289F121F129F151F11AE289F1241
:100068001F129F151F15AE289F121F169F111F11D3
:10007800AE289F121F169F111F15AE289F121F161C
:100088009F151F11AE289F121F169F151F15AE280A
:100098009F161F129F111F11AE289F161F129F1126
:1000A8001F15AE289F161F129F151F11AE289F16E9
:1000B8001F129F151F15AE289F161F169F111F117F
:1000C800AE289F161F169F111F15AE289F161F16C4
:1000D8009F151F11AE289F161F169F151F15AE28B6
:1000E8007508F300F4017408003A03197C28AE2857
:1000F8007308003A03192428013A03192928033AF6
:1001080003192E28013A03193328073A0319382806
:10011800013A03193D28033A03194228013A031901
:1001280047280F3A03194C28013A03195128033A72
:1001380003195628013A03195B28073A031960285E
:10014800013A03196528033A03196A28013A031981
:100158006F28AE28831603139F01831203139F147D
:100168000800831203139F18BA28BB28BE28F7017A
:10017800F70A0C138C1DC128C22816291412141B47
:10018800C628C728CB28941FCA28CB28D2281308EA
:10019800F0007008F900141394131416831603134F
:1001A800941AD728D828F3281419DB28DC28F32830
:1001B800831203131308F0007008F9008C11141649
:1001C80083160313141CE928EA28E428831203136E
:1001D800130888005330F000F00BF0281329941A04
:1001E800F628F7281329141DFA28FB281329831247
:1001F80003131308F0007008F90083160313141092
:10020800831203130608930014165330F000F00B02
:100218000B29831603131418122913290D29831285
:1002280003138C1172088A00710E8300FE0E7E0E75
:1002380009000130831603178800890101308316ED
:100248000313850086018801831203138501860143
:10025800880150300A128A1148210A128A11003086
:100268000A128A1117200A128A11770803193D29E0
:100278003E293929831203131E088600F7019F14AB
:1002880039290A128A110C28F300730883160313FC
:1002980093003630831203139400803083160313BF
:1002A800940001309100871507168B170B178312DE
:0C02B80003138C11831603138C1508002F
:04400E00D4E0FFFFFC
:00000001FF
