:020000040000FA
:100000000A128A11F92FFF1B0D2883137F188317FB
:100010000008840A0319FF0A080000308A00040857
:10002000840A8207003443344F3455344E345434F8
:10003000003453344E345334523400344134443455
:0A00400043340034253464340034E6
:100AE80001300A128A11A4250A128A1108000A1272
:100AF8008A1197250A128A11831603131114080004
:100B08000A128A1197250A128A11831603131115DE
:100B180008000A128A1197250A128A11700883128E
:100B28000313930008008316031314199C2D9D2D9D
:100B3800972D11081F39031DA22DA32D972D0800ED
:100B4800F200831203130613720888008617063012
:100B5800F1003030F000F00BAF2DF10BAF2D00009D
:100B68008312031386130800F20083120313061777
:100B78007208880086170630F1003030F000F00B5C
:100B8800C32DF10BC32D0000831203138613080035
:100B9800F4007303031DD12DD22DD92D74087F3E87
:100BA8000A128A11A4250A128A1102307306031D3B
:100BB800DE2DDF2DE62D7408BF3E0A128A11A4250A
:100BC8000A128A1108000A128A1197250A128A1134
:100BD8008316031391150A128A1197250A128A118E
:100BE800831203131308F200F3017208F400730868
:100BF800F5000A128A1197250A128A1170037104E6
:100C0800031D072E082E0C2E8316031391120F2E88
:100C180083160313911611167508F1007408F00075
:100C280008002830831203139400831603139101DC
:100C3800831203132008A4002108A5002208A60097
:100C48002308A70002300310A40DA50DA60DA70DBB
:100C5800FF3E031D272E2708F3002608F20025086B
:100C6800F1002408F0000030F7003D30F6000930AC
:100C7800F5000030F4000A128A11DE260A128A11E1
:100C88007008FF3E83160313930094018715071617
:100C98000800F801F901722E78087307F600740845
:100CA800F5000318F50AF81F5A2EF5037508F70022
:100CB800770883120313FF00760884000A128A114A
:100CC80003200A128A110A128A11B8250A128A11F7
:100CD8000130F8070318F90A0030F9077808730794
:100CE800F6007408F5000318F50AF81F7C2EF503C2
:100CF8007508F700770883120313FF00760884004D
:100D08000A128A1103200A128A11003A031D8D2E35
:100D18008E2E502E08001430F4007930F300F30BB7
:100D2800932EF40B932E982E30300A128A11A42594
:100D38000A128A110730F4007D30F300F30BA22E5B
:100D4800F40BA22E30300A128A11A4250A128A1135
:100D58000F30F4004730F300F30BB02EF40BB02E35
:100D6800B52E30300A128A11A4250A128A1135309C
:100D7800F300F30BBD2E38300A128A11A4250A128B
:100D88008A1110300A128A11A4250A128A11013018
:100D98000A128A11A4250A128A1106300A128A1127
:100DA800A4250A128A110C300A128A11A4250A12E3
:100DB8008A1108000030FC000030FB000030FA0007
:100DC8000030F90073087204710470040319ED2EE1
:100DD800EE2E3B2FFD01FD0AFE2E0130F800031018
:100DE800F00DF10DF20DF30DF80BF32E0130F800B4
:100DF8007808FD07F31F012F022FF12E0130F800AC
:100E08000310F90DFA0DFB0DFC0DF80B042F7308F8
:100E18007702031D192F72087602031D192F710816
:100E28007502031D192F70087402031C1C2F1D2F37
:100E38002C2F7008F4027108031C710FF502720858
:100E4800031C720FF6027308031C730FF702791460
:100E580001300310F30CF20CF10CF00CFF3E031DF3
:100E68002D2F0130FD02031D3A2F3B2F022F7C0846
:100E7800F3007B08F2007A08F1007908F000080016
:100E880083160317880189018316031385018601D8
:100E98008801831203138501860188010A128A11C9
:100EA8008F260A128A11003083120313A30001301F
:100EB800A2008630A100A030A0000A128A111526CF
:100EC8000A128A110A128A1174250A128A11F30168
:100ED800F30A01300A128A11CC250A128A110C3041
:100EE800F3008030F4000A128A114D260A128A1182
:100EF800F301F30A07300A128A11CC250A128A1163
:100F08000130F3008030F4000A128A114D260A12CB
:100F18008A11F301F30A0D300A128A11CC250A123C
:100F28008A110730F3008030F4000A128A114D2626
:100F38000A128A110A128A117B250A128A11503064
:100F4800F0000030F1000A128A118D250A128A1168
:100F58000A30F0000030F1000A128A118D250A12B9
:100F68008A110A128A1184250A128A110230831200
:100F78000313AA004530A900A930A800A80BC22F66
:100F8800A90BC22FAA0BC22F0A128A117B250A129B
:100F98008A115130F0000030F1000A128A118D25B3
:100FA8000A128A110030F000F1000A128A11E725AE
:100FB8000A128A1170088312031386000A128A1112
:100FC80084250A128A11023083120313AA004530BD
:100FD800A900A930A800A80BEF2FA90BEF2FAA0B87
:100FE800EF2F9E2F0A128A11002883120313AB01D8
:080FF80083010A128A11442F43
:04400E00D4E0FFFFFC
:00000001FF
