:020000040000FA
:060000000A128A11FC2F18
:100D1E000A128A11AB260A128A11831603131114B2
:100D2E0008000A128A11AB260A128A1183160313BF
:100D3E00111508000A128A11AB260A128A117008C0
:100D4E008312031393000800831603131419B02E95
:100D5E00B12EAB2E11081F39031DB62EB72EAB2E9A
:100D6E0008000A128A11AB260A128A11831603137F
:100D7E0091150A128A11AB260A128A1183120313D5
:100D8E001308F200F3017208F4007308F5000A125A
:100D9E008A11AB260A128A1170037104031DD82E14
:100DAE00D92EDD2E831603139112E02E8316031314
:100DBE00911611167508F1007408F000080028301D
:100DCE0083120313940083160313910183120313EA
:100DDE002008A4002108A5002208A6002308A700C9
:100DEE0002300310A40DA50DA60DA70DFF3E031D89
:100DFE00F82E2708F3002608F2002508F100240833
:100E0E00F0000030F7003D30F6000930F5000030FC
:100E1E00F4000A128A111E270A128A117008FF3E68
:100E2E0083160313930094018715071608000030EC
:100E3E00FC000030FB000030FA000030F9007308AF
:100E4E0072047104700403192D2F2E2F7B2FFD01B8
:100E5E00FD0A3E2F0130F8000310F00DF10DF20DDA
:100E6E00F30DF80B332F0130F8007808FD07F31F50
:100E7E00412F422F312F0130F8000310F90DFA0DDA
:100E8E00FB0DFC0DF80B442F73087702031D592F31
:100E9E0072087602031D592F71087502031D592F12
:100EAE0070087402031C5C2F5D2F6C2F7008F40207
:100EBE007108031C710FF5027208031C720FF60203
:100ECE007308031C730FF702791401300310F30C2F
:100EDE00F20CF10CF00CFF3E031D6D2F0130FD02E4
:100EEE00031D7A2F7B2F422F7C08F3007B08F20024
:100EFE007A08F1007908F0000800831603178801BC
:100F0E008901831603138501860188018312031359
:100F1E008501860188010030A3000130A2008630D1
:100F2E00A100A030A0000A128A11E6260A128A1128
:100F3E000A128A118F260A128A115030F0000030E0
:100F4E00F1000A128A11A1260A128A110A30F00043
:100F5E000030F1000A128A11A1260A128A110A1211
:100F6E008A1198260A128A11023083120313AA00DC
:100F7E000430A900B930A800A80BC32FA90BC32FAA
:100F8E00AA0BC32FCA2F0A128A118F260A128A1190
:100F9E005130F0000030F1000A128A11A1260A1217
:100FAE008A110030F000F1000A128A11B8260A12D6
:100FBE008A1170088312031385000A128A1198266B
:100FCE000A128A11023083120313AA000430A900F8
:100FDE00B930A800A80BF12FA90BF12FAA0BF12FF6
:100FEE00F82F9F2F0A128A11002883010A128A11E4
:020FFE00842F3E
:04400E00D4E0FFFFFC
:00000001FF
