:020000040000FA
:100000000A128A11ED2FF2008312031306177208E9
:10001000880086170630F1003030F000F00B0E2813
:10002000F10B0E28000083120313861308008312BD
:10003000031351088039D2005208DB005108D20066
:100040005207D3005308E200D01F27282828292868
:100050006214620803192D282E283E28620A031D07
:10006000322833283B280030D1000030D000003047
:10007000CF000030CE00D017D10146280030D1008B
:100080000030D0000030CF000030CE004D08803965
:10009000D2005208DB064D08D2005207D3005308A5
:1000A000E300CC1F5428552856286314630803190D
:1000B0005A285B286B28630A031D5F28602868287C
:1000C0000030CD000030CC000030CB000030CA0042
:1000D000CC17CD0173280030CD000030CC000030AB
:1000E000CB000030CA004D084C044B044A04031DE9
:1000F0007A287B2894280030D1000030D0000030CE
:10010000CF000030CE008030D0047F30D1045B08B7
:10011000D2005208D1045108CD005008CC004F083D
:10012000CB004E08CA00F3296208031D98289928BD
:10013000A2280030CD000030CC000030CB000030D1
:10014000CA00F3296208D200D3015308D50063081E
:100150005202D400031CD50354087F3EDC0055082E
:100160000318013E003EDD005108DA005008D900B6
:100170004F08D8004E08D7000030D1000030D00022
:100180000030CF000030CE000030E1000030E00051
:100190000030DF000030DE00E30118296308031996
:1001A000D228D328F3280130D2000310D70DD80D60
:1001B000D90DDA0DD20BD5280130D2000310CE0DA7
:1001C000CF0DD00DD10DD20BDE28E11FE828E92894
:1001D000EA284E140130D2000310DE0DDF0DE00DD1
:1001E000E10DD20BEC284D085A02031D01294C08E1
:1001F0005902031D01294B085802031D01294A0811
:100200005702031C04290529142961174A08D7023B
:100210004B08031C4B0FD8024C08031C4C0FD9028F
:100220004D08031C4D0FDA020130D2005208E307DB
:100230001A306302031C1D291E29CE285A085904AE
:100240005804570403192529262945295E144529F0
:100250000130D2000310CE0DCF0DD00DD10DD20B39
:100260002A29E11F3429352936294E140130D200BC
:100270000310DE0DDF0DE00DE10DD20B3829FF304C
:10028000DC070318DD0AFF30DD07D01F48294929A4
:100290002829E301E11F4D294E296A29FF305E0517
:1002A000D200FF305F05D300FF306005D4007F30FF
:1002B0006105D500550854045304520403196129FB
:1002C00062296529E301E30A6A294E1C6829692924
:1002D0006A296229630803196E296F29A029013050
:1002E000CE07003003180130CF070030031801306B
:1002F000D007003003180130D107511C8029812913
:10030000A0294E08D2004F08D3005008D40051084D
:10031000D5000130D600550DD50CD40CD30CD20C21
:10032000D60B8B295508D1005408D0005308CF00B4
:100330005208CE000130DC070318DD0A0030DD076B
:100340005D08803AFF0080307F02031DA929FF303D
:100350005C02031CAC29AD29BB29FF3083120313B7
:10036000DC000030DD000030D1000030D000003073
:10037000CF000030CE00831203135D08803AFF00E7
:1003800080307F02031DC62901305C020318C92991
:10039000CA29D72983120313DC01DD010030D10003
:1003A0000030D0000030CF000030CE00DB018312DF
:1003B00003135C08D2005208E200621CE029E12924
:1003C000E329D017E7297F30D2005208D005620810
:1003D000D2000310520CD3005308D1005B08D200A6
:1003E0005208D1048B280800730880398312031344
:1003F000A0002008F8007308A0002007A100210831
:10040000FA00F21F042A052A062A7A147A08031928
:100410000A2A0B2A1B2A7A0A031D0F2A102A182AD5
:100420000030F3000030F2000030F1000030F00046
:10043000F217F301232A0030F3000030F2000030FD
:10044000F1000030F00077088039A0002008F900A2
:100450007908780603192D2A2E2A2F2A781777086B
:10046000A0002007A1002108F900F61F382A392A28
:100470003A2A7914790803193E2A3F2A4F2A790A21
:10048000031D432A442A4C2A0030F7000030F600AE
:100490000030F5000030F400F617F701572A00305D
:1004A000F7000030F6000030F5000030F4007A0864
:1004B000790203185C2A5D2AA12A781F602A612A22
:1004C000652A8030A0002008F8067A08A0002008DD
:1004D000FB007908A0002008FA007B08A000200893
:1004E000F9007008A0002008FB007408A000200894
:1004F000F0007B08A0002008F4007108A00020088C
:10050000FB007508A0002008F1007B08A00020086F
:10051000F5007208A0002008FB007608A000200863
:10052000F2007B08A0002008F6007308A000200855
:10053000FB007708A0002008F3007B08A00020083B
:10054000F700FB017908A000A1012108A3007A08A7
:100550002002A200031CA3032308803AFF0080307E
:100560007F02031DB52A1A302202031CB82AB92AB9
:10057000FA2A7308720471047004031DC02AC22A87
:100580000130C32A003083120313A0002008FB00AF
:100590000030F3000030F2000030F1000030F000D5
:1005A0007908A0002008FA00002B7B1CD82AD92A41
:1005B000E42A7B0883120313A0000310200C0138E7
:1005C000A1002108FB00E62A0310FB0C701CE92A9D
:1005D000EA2AEB2AFB17013083120313A000730DE4
:1005E000F30CF20CF10CF00CA00BEF2A0130A00080
:1005F0002008FA0779087A02031CFF2A002BD52A63
:10060000781B032B042B532B7A08031D082B092B73
:10061000122B0030F3000030F2000030F100003007
:10062000F0008B2C7408F007750803110318013EC5
:1006300003191B2BF107760803110318013E031958
:10064000222BF207770803110318013E0319292B07
:10065000F307731C2C2B2D2B0B2C7B1C302B312BDD
:100660003C2B7B0883120313A0000310200C0138DD
:10067000A1002108FB003E2B0310FB0C701C412B3A
:10068000422B432BFB17013083120313A000730D81
:10069000F30CF20CF10CF00CA00B472B0130A00076
:1006A0002008FA070B2C7308803AFF007708803A7D
:1006B0007F02031D652B76087202031D652B7508EA
:1006C0007102031D652B740870020318682B692BD7
:1006D000C32BFF3083120313A000FF30A100FF30B3
:1006E000A200FF30A3007408A4007508A5007608D6
:1006F000A6007708A7007008A4027108031C710FF8
:10070000822B832BA5027208031C720F882B892B66
:10071000A6027308031C730F8E2B8F2BA7022408CD
:10072000A00725080318250F962B972BA10726084D
:100730000318260F9C2B9D2BA20727080318270AB6
:10074000A3072308F3002208F2002108F100200883
:10075000F0008030A0002008F806FB09FB0A7B08A7
:10076000031DB32BB42BD12B0130F007003003183D
:100770000130F107003003180130F2070030031890
:100780000130F307D12B7408F0027508031C750FB4
:10079000F1027608031C760FF2027708031C770F2C
:1007A000F3027308720471047004031DD82BD92B53
:1007B000072C7B08031DDD2BDE2B072C0030F300FC
:1007C0000030F2000030F1000030F0008B2C0130DE
:1007D00083120313A0000310F00DF10DF20DF30DC1
:1007E000A00BEB2BFB1FF52BF62BF72B70147B1CB0
:1007F000FA2BFB2BFE2B0314FB0D002C0310FB0D1F
:100800007A080319042C052C072C0130FA02F21F78
:100810000A2C0B2CE72BF901FB1F0F2C102C1E2C84
:100820007B087F390319152C162C192CF901F90AAC
:100830001E2C701C1C2C1D2C1E2C162C7908031928
:10084000222C232C592C0130F007003003180130E2
:10085000F107003003180130F207003003180130AF
:10086000F307731C342C352C592C70088312031396
:10087000A0007108A1007208A2007308A300013053
:10088000A400230DA30CA20CA10CA00CA40B412CC2
:100890002308F3002208F2002108F1002008F000EC
:1008A0007A0A0319542C552C592C0130A000200829
:1008B000FA077A0A03195D2C5E2C632C7A08031D53
:1008C000622C632C712C0030F3000030F2000030F9
:1008D000F1000030F0007A08031D6F2C702C712C91
:1008E000F8017A1C742C752C772CF2177D2C7F3034
:1008F00083120313A0002008F2057A088312031361
:10090000A0000310200CA1002108F300F81F892C7F
:100910008A2C8B2CF31708008312031333088039B9
:10092000B8003808BD003308B8003807B9003908E6
:10093000C300B21F9C2C9D2C9E2C4314430803190A
:10094000A22CA32CB22C430A031DA72CA82CB02C3C
:100950000030B3000030B2000030B1000030B00011
:10096000B217BA2C0030B3000030B2000030B10032
:100970000030B00037088039B8003808BD063708A5
:10098000B8003807B9003908C200B61FC82CC92CF6
:10099000CA2C421442080319CE2CCF2CDE2C420A5A
:1009A000031DD32CD42CDC2C0030B7000030B60053
:1009B0000030B5000030B400B617E62C0030B700A8
:1009C0000030B6000030B5000030B4004208031912
:1009D000EA2CEB2CF02C4308031DEF2CF02CF92C07
:1009E0000030B3000030B2000030B1000030B00081
:1009F000EC2F3008B8003808F00036080A128A15C3
:100A0000C2210A128A11710883120313C9007008E7
:100A1000C8004808B800B901BA01BB013B08C100D1
:100A20003A08C0003908BF003808BE004908B800BD
:100A3000B901BA01BB013B08C7003A08C600390832
:100A4000C5003808C4003108B8003808F00035087F
:100A50000A128A15C2210A128A117108831203131D
:100A6000C9007008C8004808B800B901BA01BB0144
:100A70003808BE07390803110318013E0319412D38
:100A8000BF073A0803110318013E0319482DC00798
:100A90003B0803110318013E03194F2DC1074908F4
:100AA000B800B901BA01BB013808C40739080311FD
:100AB0000318013E03195D2DC5073A0803110318F9
:100AC000013E0319642DC6073B0803110318013EBC
:100AD00003196B2DC7073208B8003808F000340836
:100AE0000A128A15C2210A128A117108831203138D
:100AF000C9007008C8004808B800B901BA01BB01B4
:100B00003808BE07390803110318013E0319892D5F
:100B1000BF073A0803110318013E0319902DC007BF
:100B20003B0803110318013E0319972DC10749081B
:100B3000B800B901BA01BB013808C407390803116C
:100B40000318013E0319A52DC5073A080311031820
:100B5000013E0319AC2DC6073B0803110318013EE3
:100B60000319B32DC7070830B8000310BE0DBF0D21
:100B7000C00DC10DB80BB52D3108B8003808F00014
:100B800034080A128A15C2210A128A1171088312C6
:100B90000313C9007008C8004808B8004908B90024
:100BA000BA01BB013808BE07390803110318013E1A
:100BB0000319DB2DBF073A0803110318013E03197F
:100BC000E22DC0073B0803110318013E0319E92D6C
:100BD000C1073008B8003808F00035080A128A1535
:100BE000C2210A128A11710883120313C900700806
:100BF000C8004808B8004908B900BA01BB01380864
:100C0000BE07390803110318013E0319082EBF0758
:100C10003A0803110318013E03190F2EC0073B08C1
:100C200003110318013E0319162EC1070830B8003E
:100C30000310BE0DBF0DC00DC10DB80B182E30082E
:100C4000B8003808F00034080A128A15C2210A12C6
:100C50008A11710883120313C9007008C80048087C
:100C6000B8004908B900BA01BB013808BE07390805
:100C700003110318013E03193E2EBF073A08031162
:100C80000318013E0319452EC0073B080311031842
:100C9000013E03194C2EC1073108B8003808F00096
:100CA00036080A128A15C2210A128A1171088312A3
:100CB0000313C9007008C8004808B8004908B90003
:100CC000BA01BB013808C407390803110318013EF3
:100CD00003196B2EC5073A0803110318013E0319C7
:100CE000722EC6073B0803110318013E0319792E23
:100CF000C7073208B8003808F00035080A128A150C
:100D0000C2210A128A11710883120313C9007008E4
:100D1000C8004808B8004908B900BA01BB01380842
:100D2000C407390803110318013E0319982EC5079B
:100D30003A0803110318013E03199F2EC6073B080A
:100D400003110318013E0319A62EC7073208B80085
:100D50003808F00036080A128A15C2210A128A11D0
:100D6000710883120313C9007008C8004808B8004E
:100D70004908B900BA01BB0108300310B80DB90D1C
:100D8000BA0DBB0DFF3E031DBD2E3808C407390840
:100D900003110318013E0319CE2EC5073A080311AB
:100DA0000318013E0319D52EC6073B08031103188B
:100DB000013E0319DC2EC7073E08B8003F08B90002
:100DC0004008BA004108BB0018300310BB0CBA0C35
:100DD000B90CB80CFF3E031DE52E3808C4073908CE
:100DE00003110318013E0319F62EC5073A08031133
:100DF0000318013E0319FD2EC6073B080311031813
:100E0000013E0319042FC7070830B8000310BE0DB8
:100E1000BF0DC00DC10DB80B062F43084207B80027
:100E2000B901B90D3808823EC80039080318013EDF
:100E3000FF3EC900382F0130B8000310C40DC50DA6
:100E4000C60DC70DB80B1D2FC11F272F282F292F07
:100E500044140130B8000310BE0DBF0DC00DC10D0C
:100E6000B80B2B2FFF30C8070318C90AFF30C9077A
:100E7000C61F3B2F3C2F1B2FC201C11F402F412FEC
:100E80005D2FFF303E05B800FF303F05B900FF3051
:100E90004005BA007F304105BB003B083A043904E5
:100EA00038040319542F552F582FC201C20A5D2F41
:100EB000441C5B2F5C2F5D2F552F42080319612FB7
:100EC000622F932F0130C407003003180130C5078B
:100ED000003003180130C607003003180130C7077F
:100EE000471C732F742F932F4408B8004508B9008E
:100EF0004608BA004708BB000130BC003B0DBB0CE4
:100F0000BA0CB90CB80CBC0B7E2F3B08C7003A08D2
:100F1000C6003908C5003808C4000130C8070318E6
:100F2000C90A0030C9074908803AFF0080307F02B3
:100F3000031D9C2FFF304802031C9F2FA02FAB2FB7
:100F40007F3083120313C7008030C6000030C50015
:100F50000030C400E02F831203134908803AFF00D9
:100F600080307F02031DB62F013048020318B92FCD
:100F7000BA2FC62F003083120313C7000030C600FB
:100F80000030C5000030C400BD01E02F8312031300
:100F90004808B8003808C300FF30C405FF30C50555
:100FA0007F30C6050030C705431CD72FD82FD92F57
:100FB000C6174308B8000310380CB9003908C70039
:100FC0003D08B8003808C7044708B3004608B20017
:100FD0004508B1004408B000080083120313E8017B
:100FE000E901EA01EB01EC01ED01EE0183160313C7
:100FF000A001A101A201A30183010A128A15E22D19
:10100000FF1B0A2883137F1883170008840A03191B
:10101000FF0A080008308A000408840A82070034A6
:10102000013400340A34003464340034E8340334C6
:101030001034273443344F3455344E345434003450
:1010400053344E34533452340034413444344334F2
:0E10500000342534643400343034303400343D
:1012420001300A128A1551210A128A1508000A125F
:101252008A1544210A128A158316031311140800F1
:101262000A128A1544210A128A15831603131115CC
:1012720008000A128A1544210A128A15700883127C
:1012820003139300080083160313141949294A29EA
:10129200442911081F39031D4F29502944290800E8
:1012A200F2008312031306137208880086170630B1
:1012B200F1003030F000F00B5C29F10B5C290000EA
:1012C2008312031386130800F4007303031D6A29B3
:1012D2006B29722974087F3E0A128A1551210A125B
:1012E2008A1502307306031D772978297F2974082D
:1012F200BF3E0A128A1551210A128A15080083126A
:101302000313B4001A30AD002D08A0003408AE005B
:10131200AF012E08A1002F08A20030300A128A1550
:10132200FA240A128A153030F3000030F4000A124F
:101332008A1589220A128A15080080308312031343
:10134200AB062F08F3002E08F2002D08F1002C083E
:10135200F0002B08F7002A08F6002908F5002808F3
:10136200F4000A128A11F4210A128A1573088312F0
:101372000313AB007208AA007108A9007008A80044
:101382000800F800F401F5017008F200F301720898
:10139200F6007308F700781CCF29D029D6297608E1
:1013A200F4070318F50A7708F50701300310F60D64
:1013B200F70DFF3E031DD7290310F80C7808031D13
:1013C200E329E429CC297508F1007408F00008002B
:1013D2000A128A1544210A128A15831603139115DB
:1013E2000A128A1544210A128A158312031313085A
:1013F200F200F3017208F4007308F5000A128A156C
:1014020044210A128A1570037104031D092A0A2A4B
:101412000E2A831603139112112A831603139116AF
:1014220011167508F1007408F000080028308312C4
:1014320003139400831603139101831203132008EC
:10144200A4002108A5002208A6002308A700023054
:101452000310A40DA50DA60DA70DFF3E031D292AFD
:101462002708F3002608F2002508F1002408F000FE
:101472000030F7003D30F6000930F5000030F4008E
:101482000A128A155E230A128A157008FF3E831615
:10149200031393009401871507160800780879044E
:1014A2000319542A552A842AFD01FD0A632A0130B0
:1014B2000310F80DF90DFF3E031D592A0130FC00FF
:1014C2007C08FD07F91F662A672A582A79087B02D9
:1014D200031D6D2A78087A02031C702A712A772A62
:1014E2007808FA027908031CFB03FB02013003109F
:1014F200F90CF80CFF3E031D782A0130FD02031D92
:10150200832A842A672A7B08F9007A08F8000800EF
:10151200F801F901AE2A78087307F6007408F5009D
:101522000318F50AF81F962AF5037508F7007708DD
:1015320083120313FF00760884000A128A15002022
:101542000A128A150A128A1103200A128A15013018
:10155200F8070318F90A0030F90778087307F6004C
:101562007408F5000318F50AF81FB82AF503750880
:10157200F700770883120313FF00760884000A122B
:101582008A1500200A128A15003A031DC92ACA2A9E
:101592008C2A0800F501F601700871040319D22A99
:1015A200D32A0A2BF701F70AE12A01300310F00DC2
:1015B200F10DFF3E031DD72A0130F4007408F7072E
:1015C200F11FE42AE52AD62A01300310F50DF60DA3
:1015D200FF3E031DE62A71087302031DF22A7008FA
:1015E2007202031CF52AF62AFD2A7008F20271081B
:1015F200031CF303F302751401300310F10CF00C19
:10160200FF3E031DFE2A0130F702031D092B0A2BA0
:10161200E52A7608F1007508F00008001430F4009D
:101622007930F300F30B132BF40B132B182B303000
:101632000A128A1551210A128A150730F4007D30E8
:10164200F300F30B222BF40B222B30300A128A15F3
:1016520051210A128A150F30F4004730F300F30BC0
:10166200302BF40B302B352B30300A128A155121D6
:101672000A128A153530F300F30B3D2B38300A126B
:101682008A1551210A128A1510300A128A1551211F
:101692000A128A1501300A128A1551210A128A1574
:1016A20006300A128A1551210A128A150C300A12C2
:1016B2008A1551210A128A1508000030FC000030F8
:1016C200FB000030FA000030F90073087204710464
:1016D200700403196D2B6E2BBB2BFD01FD0A7E2BB3
:1016E2000130F8000310F00DF10DF20DF30DF80BBF
:1016F200732B0130F8007808FD07F31F812B822B32
:10170200712B0130F8000310F90DFA0DFB0DFC0DE1
:10171200F80B842B73087702031D992B720876024B
:10172200031D992B71087502031D992B7008740211
:10173200031C9C2B9D2BAC2B7008F4027108031C1C
:10174200710FF5027208031C720FF6027308031C74
:10175200730FF702791401300310F30CF20CF10C41
:10176200F00CFF3E031DAD2B0130FD02031DBA2B11
:10177200BB2B822B7C08F3007B08F2007A08F10075
:101782007908F00008000310720D730DF40074085C
:10179200FA007A08031DCE2BCF2BD82B0030F30092
:1017A2000030F2000030F1000030F0003D2C7008F3
:1017B200F4007108F5007208F6007308F7001F3094
:1017C2000310F70CF60CF50CF40CFF3E031DE12B95
:1017D2007408F8007808F900F217FF30F005FF30BE
:1017E200F105FF30F2050030F3059630FA02FA1FD8
:1017F200FB2BFC2B162C7A08803A973E0318022CFE
:10180200032C042CCF2B01300310F30CF20CF10C3F
:10181200F00CFF3E031D052C0130F4007408FA079A
:10182200031D142C152C042C2D2C20307A02031CA1
:101832001B2C1C2C282CCF2B0130F4000310F00D94
:10184200F10DF20DF30DF40B1F2C0130FA027A08A0
:10185200031D2C2C2D2C1D2C79080319312C322C14
:101862003D2CF009F109F209F309F00A0319F10A12
:101872000319F20A0319F30A080083120313A000E2
:1018820020080319452C462C5A2CF91F492C4A2CA6
:101892005A2C7609A2007709A3007809A4007909D5
:1018A200A500A20A0319A30A0319A40A0319A50A87
:1018B200622C7908A5007808A4007708A3007608AE
:1018C200A2007908780477047604031D692C6A2C37
:1018D200732C0030F9000030F8000030F7000030BF
:1018E200F600F92C9630FA007A08A100852C013016
:1018F200FA007A08A10701300310A50CA40CA30C6E
:10190200A20CFF3E031D7D2CFE302505031D8A2CF3
:101912008B2C782CA72C0130FA007A08A107013011
:10192200A207003003180130A3070030031801306A
:10193200A407003003180130A50701300310A50CDD
:10194200A40CA30CA20CFF3E031D9F2CFF30250507
:10195200031DAC2CAD2C8C2CB92C0130A102013012
:10196200FA000310A20DA30DA40DA50DFA0BB22CC3
:10197200A41BBC2CBD2CC32C023021020318C22C88
:10198200C32CAE2C2118C62CC72CCF2CFF30A2059D
:10199200FF30A3057F30A405FF30A5050310A10C7D
:1019A2002108FA00FB01FC01FD0118300310FA0DB9
:1019B200FB0DFC0DFD0DFF3E031DD72C7A08A20482
:1019C2007B08A3047C08A4047D08A504200803194D
:1019D200EB2CEC2CF12CF91FEF2CF02CF12CA51791
:1019E2002508F9002408F8002308F7002208F60069
:1019F200080083120313AB002130A3002308A600C2
:101A0200CB2D25302C060319072D082D142D2C085B
:101A1200A3002B0884002308831380000130A30055
:101A22002308AB07CB2DA7010130A007FF30200709
:101A320084000A128A150A200A128A15AC00A30031
:101A4200A4012408003A0319272DCB2D2308003ABC
:101A52000319DD2D643A0319322D0D3A0319322D83
:101A6200CB2D2608840083130008A900840A0008ED
:101A7200AA000230A3002308A607AA1F412D422D67
:101A82004B2D0330A3002308A704A909AA09A90A18
:101A92000319AA0AAC01AC0A2C08A3002307013ED1
:101AA20084000A128A150A200A128A15A4000A1250
:101AB2008A150A200A128A15A50025082A02031D82
:101AC200642D240829020318672D682D692D732DB2
:101AD2000130A3002308AC0705302C06031D722D2C
:101AE200732D4D2D270803390319782D792D842D57
:101AF2002D30A3002B0884002308831380000130BB
:101B0200A3002308AB072C08A3002308A800C22DBA
:101B12000A30F8000030F9002808A3002307013E2C
:101B220084000A128A150A200A128A15F0000A1283
:101B32008A150A200A128A15F1002A08F3002908D8
:101B4200F2000A128A15CB220A128A157108FB00CA
:101B52007008FA000A128A154F220A128A157808AA
:101B6200303E83120313A4002408AC002C08A30007
:101B72002B0884002308831380000130A30023086C
:101B8200AB07FF30A3002308A807280A031DCA2DAC
:101B9200CB2D892D0130A007FF30200784000A12C7
:101BA2008A150A200A128A15A3002308AC002C0801
:101BB200031DDC2DDD2D022D2B08840083138001F3
:101BC2000800831603178801890183160313850110
:101BD20086018801831203138501860188010A1296
:101BE2008A150F230A128A15003083120313A300E9
:101BF2000130A2008630A100A030A0000A128A158E
:101C020017220A128A150A128A1521210A128A1526
:101C1200F301F30A02300A128A1565210A128A15A3
:101C22001630F3008030F4000A128A1589220A1253
:101C32008A15F301F30A07300A128A1565210A127E
:101C42008A150B30F3008030F4000A128A158922BB
:101C52000A128A15F301F30A0D300A128A15652158
:101C62000A128A151130F3008030F4000A128A1524
:101C720089220A128A150A128A1528210A128A153D
:101C82005130F0000030F1000A128A153A210A128E
:101C92008A150030F000F1000A128A15E9210A12B1
:101CA2008A15700883120313E4007108E500E60147
:101CB200E7016708F9006608F8006508F70064089C
:101CC200F60000300A128A153E240A128A15790893
:101CD20083120313EB007808EA007708E90076081C
:101CE200E8000A128A1531210A128A150D30831270
:101CF2000313E500FB30E400E40B7D2EE50B7D2EA3
:101D02000A128A1528210A128A156130F000003061
:101D1200F1000A128A153A210A128A150030F000DF
:101D2200F1000A128A15E9210A128A157008831233
:101D32000313E4006408EC000A128A1531210A1226
:101D42008A150D3083120313E500FB30E400E40B27
:101D5200A82EE50BA82E433083120313CD007F304B
:101D6200CC000030CB000030CA004030B300A030BD
:101D7200B2000030B1000030B0006B08B7006A0852
:101D8200B6006908B5006808B4000A128A118C24EA
:101D92000A128A15831203133308D1003208D000C5
:101DA2003108CF003008CE000A128A1117200A1219
:101DB2008A15831203134D08EB004C08EA004B0806
:101DC200E9004A08E8006B08F3006A08F2006908B3
:101DD200F1006808F0000A128A15C4230A128A1553
:101DE200700883120313E4006408EE004230B3006B
:101DF200C830B2000030B1000030B0006E08E4001C
:101E0200E501E601E7016708F9006608F8006508E0
:101E1200F7006408F60001300A128A153E240A12FD
:101E22008A15790883120313AB007808AA00770891
:101E3200A9007608A8006B08AF006A08AE0069081E
:101E4200AD006808AC000A128A159E210A128A1592
:101E5200831203132B08B7002A08B6002908B5001D
:101E62002808B4000A128A118C240A128A158312D5
:101E72000313330883160313A300831203133208D8
:101E820083160313A200831203133108831603136C
:101E9200A10083120313300883160313A000230842
:101EA200F3002208F2002108F1002008F0000A12D3
:101EB2008A15C4230A128A15700883120313E400D8
:101EC2006408ED000230E4006408F30001300A12F5
:101ED2008A1565210A128A15831203136E080A12E3
:101EE2008A1580210A128A152E300A128A110320BD
:101EF2000A128A150A30831203136D02031C822F01
:101F0200832F8A2F6D080A128A1580210A128A15D8
:101F1200982F30300A128A1103200A128A1583126E
:101F220003136D080A128A1580210A128A15563087
:101F32000A128A1103200A128A150A308312031325
:101F42006C020318A52FA62FC22F0230E4006408EA
:101F5200F30008300A128A1565210A128A151D300B
:101F6200F3008030F4000A128A1589220A128A15B7
:101F7200831203136C080A128A1580210A128A1529
:101F82003C2E0A306C02031CC72FC82FEA2F643084
:101F92006C020318CD2FCE2FEA2F0230E400640822
:101FA200F30008300A128A1565210A128A151E30BA
:101FB200F3008030F4000A128A1589220A128A1567
:101FC200831203136C080A128A1580210A128A15D9
:101FD2003C2E0230E4006408F30008300A128A152D
:101FE20065210A128A15831203136C080A128A15D4
:0E1FF20080210A128A153C2E0A128A1100283C
:04400E00D4E0FFFFFC
:00000001FF
