:020000040000FA
:060000000A128A11FC2F18
:100D32000A128A11B5260A128A1183160313111494
:100D420008000A128A11B5260A128A1183160313A1
:100D5200111508000A128A11B5260A128A117008A2
:100D62008312031393000800831603131419BA2E77
:100D7200BB2EB52E11081F39031DC02EC12EB52E54
:100D820008000A128A11B5260A128A118316031361
:100D920091150A128A11B5260A128A1183120313B7
:100DA2001308F200F3017208F4007308F5000A1246
:100DB2008A11B5260A128A1170037104031DE22EEC
:100DC200E32EE72E831603139112EA2E83160313E2
:100DD200911611167508F1007408F0000800283009
:100DE20083120313940083160313910183120313D6
:100DF2002008A4002108A5002208A6002308A700B5
:100E020002300310A40DA50DA60DA70DFF3E031D74
:100E1200022F2708F3002608F2002508F100240813
:100E2200F0000030F7003D30F6000930F5000030E8
:100E3200F4000A128A1128270A128A117008FF3E4A
:100E420083160313930094018715071608000030D8
:100E5200FC000030FB000030FA000030F90073089B
:100E62007204710470040319372F382F852FFD0186
:100E7200FD0A482F0130F8000310F00DF10DF20DBC
:100E8200F30DF80B3D2F0130F8007808FD07F31F32
:100E92004B2F4C2F3B2F0130F8000310F90DFA0DA8
:100EA200FB0DFC0DF80B4E2F73087702031D632F09
:100EB20072087602031D632F71087502031D632FEA
:100EC20070087402031C662F672F762F7008F402D5
:100ED2007108031C710FF5027208031C720FF602EF
:100EE2007308031C730FF702791401300310F30C1B
:100EF200F20CF10CF00CFF3E031D772F0130FD02C6
:100F0200031D842F852F4C2F7C08F3007B08F200F1
:100F12007A08F1007908F0000800831603178801A7
:100F22008901831603138501860188018312031345
:100F32008501860188010030A3000130A2008630BD
:100F4200A100A030A0000A128A11F0260A128A110A
:100F52000A128A1199260A128A115030F0000030C2
:100F6200F1000A128A11AB260A128A110A30F00025
:100F72000030F1000A128A11AB260A128A110A12F3
:100F82008A11A2260A128A11823083120313A9003F
:100F9200DD30A800A80BCB2FA90BCB2F0A128A1188
:100FA20099260A128A115130F0000030F1000A121B
:100FB2008A11AB260A128A110030F000F1000A12DF
:100FC2008A11C2260A128A1170088312031385003D
:100FD2000A128A11A2260A128A118230831203137C
:100FE200A900DD30A800A80BF42FA90BF42FA92F1C
:0E0FF2000A128A11002883010A128A118E2F1A
:04400E00D4E0FFFFFC
:00000001FF
