:020000040000FA
:060000000A128A11EE2F26
:10000800F200831203130617720888008617063059
:10001800F1003030F000F00B0F28F10B0F28000032
:1000280083120313861308008312031351088039BF
:10003800D2005208DB005108D2005207D3005308FF
:10004800E200D01F282829282A28621462080319E8
:100058002E282F283F28620A031D332834283C28DD
:100068000030D1000030D0000030CF000030CE008A
:10007800D017D10147280030D1000030D00000301F
:10008800CF000030CE004D088039D2005208DB0680
:100098004D08D2005207D3005308E300CC1F55285F
:1000A800562857286314630803195B285C286C28B2
:1000B800630A031D6028612869280030CD000030DC
:1000C800CC000030CB000030CA00CC17CD0174281A
:1000D8000030CD000030CC000030CB000030CA002A
:1000E8004D084C044B044A04031D7B287C289528A2
:1000F8000030D1000030D0000030CF000030CE00FA
:100108008030D0047F30D1045B08D2005208D1047B
:100118005108CD005008CC004F08CB004E08CA004B
:10012800F4296208031D99289A28A3280030CD00D5
:100138000030CC000030CB000030CA00F42962083F
:10014800D200D3015308D50063085202D400031C1F
:10015800D50354087F3EDC0055080318013E003ED5
:10016800DD005108DA005008D9004F08D8004E08C1
:10017800D7000030D1000030D0000030CF00003070
:10018800CE000030E1000030E0000030DF00003039
:10019800DE00E301192963080319D328D428F428B9
:1001A8000130D2000310D70DD80DD90DDA0DD20BBE
:1001B800D6280130D2000310CE0DCF0DD00DD10DB1
:1001C800D20BDF28E11FE928EA28EB284E1401307A
:1001D800D2000310DE0DDF0DE00DE10DD20BED288E
:1001E8004D085A02031D02294C085902031D022911
:1001F8004B085802031D02294A085702031C052907
:100208000629152961174A08D7024B08031C4B0F0A
:10021800D8024C08031C4C0FD9024D08031C4D0F83
:10022800DA020130D2005208E3071A306302031CD5
:100238001E291F29CF285A0859045804570403199E
:100248002629272946295E1446290130D2000310A1
:10025800CE0DCF0DD00DD10DD20B2B29E11F352995
:10026800362937294E140130D2000310DE0DDF0D78
:10027800E00DE10DD20B3929FF30DC070318DD0A48
:10028800FF30DD07D01F49294A292929E301E11F49
:100298004E294F296B29FF305E05D200FF305F05DC
:1002A800D300FF306005D4007F306105D5005508C4
:1002B8005404530452040319622963296629E3018B
:1002C800E30A6B294E1C69296A296B29632963088B
:1002D80003196F297029A1290130CE0700300318AE
:1002E8000130CF07003003180130D0070030031861
:1002F8000130D107511C81298229A1294E08D20039
:100308004F08D3005008D4005108D5000130D6005A
:10031800550DD50CD40CD30CD20CD60B8C29550802
:10032800D1005408D0005308CF005208CE00013045
:10033800DC070318DD0A0030DD075D08803AFF009E
:1003480080307F02031DAA29FF305C02031CAD29FF
:10035800AE29BC29FF3083120313DC000030DD0016
:100368000030D1000030D0000030CF000030CE0087
:10037800831203135D08803AFF0080307F02031D5B
:10038800C72901305C020318CA29CB29D82983124E
:100398000313DC01DD010030D1000030D000003053
:1003A800CF000030CE00DB01831203135C08D200BB
:1003B8005208E200621CE129E229E429D017E82961
:1003C8007F30D2005208D0056208D2000310520CC8
:1003D800D3005308D1005B08D2005208D1048C28FE
:1003E80008007308803983120313A0002008F8005E
:1003F8007308A0002007A1002108FA00F21F052AAF
:10040800062A072A7A147A0803190B2A0C2A1C2AA6
:100418007A0A031D102A112A192A0030F300003025
:10042800F2000030F1000030F000F217F301242A46
:100438000030F3000030F2000030F1000030F0002E
:1004480077088039A0002008F90079087806031990
:100458002E2A2F2A302A78177708A0002007A10013
:100468002108F900F61F392A3A2A3B2A7914790813
:1004780003193F2A402A502A790A031D442A452A8B
:100488004D2A0030F7000030F6000030F50000304B
:10049800F400F617F701582A0030F7000030F6008C
:1004A8000030F5000030F4007A08790203185D2A5C
:1004B8005E2AA22A781F612A622A662A8030A00052
:1004C8002008F8067A08A0002008FB007908A00098
:1004D8002008FA007B08A0002008F9007008A00096
:1004E8002008FB007408A0002008F0007B08A0008A
:1004F8002008F4007108A0002008FB007508A0007F
:100508002008F1007B08A0002008F5007208A00070
:100518002008FB007608A0002008F2007B08A00055
:100528002008F6007308A0002008FB007708A00048
:100538002008F3007B08A0002008F700FB017908D9
:10054800A000A1012108A3007A082002A200031C30
:10055800A3032308803AFF0080307F02031DB62AD8
:100568001A302202031CB92ABA2AFB2A7308720419
:1005780071047004031DC12AC32A0130C42A003043
:1005880083120313A0002008FB000030F3000030A2
:10059800F2000030F1000030F0007908A0002008D7
:1005A800FA00012B7B1CD92ADA2AE52A7B08831258
:1005B8000313A0000310200C0138A1002108FB0040
:1005C800E72A0310FB0C701CEA2AEB2AEC2AFB171B
:1005D800013083120313A000730DF30CF20CF10C1D
:1005E800F00CA00BF02A0130A0002008FA077908C7
:1005F8007A02031C002B012BD62A781B042B052B0F
:10060800542B7A08031D092B0A2B132B0030F300F7
:100618000030F2000030F1000030F0008C2C74083B
:10062800F007750803110318013E03191C2BF10785
:10063800760803110318013E0319232BF2077708E4
:1006480003110318013E03192A2BF307731C2D2BE2
:100658002E2B0C2C7B1C312B322B3D2B7B08831231
:100668000313A0000310200C0138A1002108FB008F
:100678003F2B0310FB0C701C422B432B442BFB1706
:10068800013083120313A000730DF30CF20CF10C6C
:10069800F00CA00B482B0130A0002008FA070C2C06
:1006A8007308803AFF007708803A7F02031D662BA3
:1006B80076087202031D662B75087102031D662BEE
:1006C800740870020318692B6A2BC42BFF3083123D
:1006D8000313A000FF30A100FF30A200FF30A300E9
:1006E8007408A4007508A5007608A6007708A70076
:1006F8007008A4027108031C710F832B842BA502B8
:100708007208031C720F892B8A2BA6027308031C1C
:10071800730F8F2B902BA7022408A0072508031816
:10072800250F972B982BA10726080318260F9D2B1A
:100738009E2BA20727080318270AA3072308F300FC
:100748002208F2002108F1002008F0008030A00003
:100758002008F806FB09FB0A7B08031DB42BB52B00
:10076800D22B0130F007003003180130F1070030B8
:1007780003180130F207003003180130F307D22BB9
:100788007408F0027508031C750FF1027608031C43
:10079800760FF2027708031C770FF30273087204CE
:1007A80071047004031DD92BDA2B082C7B08031D58
:1007B800DE2BDF2B082C0030F3000030F200003075
:1007C800F1000030F0008C2C013083120313A000DC
:1007D8000310F00DF10DF20DF30DA00BEC2BFB1F28
:1007E800F62BF72BF82B70147B1CFB2BFC2BFF2B09
:1007F8000314FB0D012C0310FB0D7A080319052CBB
:10080800062C082C0130FA02F21F0B2C0C2CE82BBA
:10081800F901FB1F102C112C1F2C7B087F390319A1
:10082800162C172C1A2CF901F90A1F2C701C1D2CD8
:100838001E2C1F2C172C79080319232C242C5A2C16
:100848000130F007003003180130F10700300318B9
:100858000130F207003003180130F307731C352C00
:10086800362C5A2C700883120313A0007108A100BB
:100878007208A2007308A3000130A400230DA30C82
:10088800A20CA10CA00CA40B422C2308F3002208F4
:10089800F2002108F1002008F0007A0A0319552C0B
:1008A800562C5A2C0130A0002008FA077A0A03199E
:1008B8005E2C5F2C642C7A08031D632C642C722C2C
:1008C8000030F3000030F2000030F1000030F0009A
:1008D8007A08031D702C712C722CF8017A1C752C67
:1008E800762C782CF2177E2C7F3083120313A0000D
:1008F8002008F2057A0883120313A0000310200CC5
:10090800A1002108F300F81F8A2C8B2C8C2CF317DC
:1009180008008312031333088039B8003808BD0073
:100928003308B8003807B9003908C300B21F9D2C36
:100938009E2C9F2C431443080319A32CA42CB32CDE
:10094800430A031DA82CA92CB12C0030B300003099
:10095800B2000030B1000030B000B217BB2C00303C
:10096800B3000030B2000030B1000030B0003708EA
:100978008039B8003808BD063708B8003807B9000C
:100988003908C200B61FC92CCA2CCB2C4214420805
:100998000319CF2CD02CDF2C420A031DD42CD52CC4
:1009A800DD2C0030B7000030B6000030B500003054
:1009B800B400B617E72C0030B7000030B60000309E
:1009C800B5000030B40042080319EB2CEC2CF12CD4
:1009D8004308031DF02CF12CFA2C0030B300003032
:1009E800B2000030B1000030B000ED2F3008B80080
:1009F8003808F00036080A128A154B220A128A11A2
:100A0800710883120313C9007008C8004808B800A9
:100A1800B901BA01BB013B08C1003A08C000390856
:100A2800BF003808BE004908B800B901BA01BB01C7
:100A38003B08C7003A08C6003908C5003808C40092
:100A48003108B8003808F00035080A128A154B2218
:100A58000A128A11710883120313C9007008C800AA
:100A68004808B800B901BA01BB013808BE073908FF
:100A780003110318013E0319422DBF073A08031159
:100A88000318013E0319492DC0073B080311031839
:100A9800013E0319502DC1074908B800B901BA0130
:100AA800BB013808C407390803110318013E0319AC
:100AB8005E2DC5073A0803110318013E0319652D79
:100AC800C6073B0803110318013E03196C2DC7071D
:100AD8003208B8003808F00034080A128A154B2288
:100AE8000A128A11710883120313C9007008C8001A
:100AF8004808B800B901BA01BB013808BE0739086F
:100B080003110318013E03198A2DBF073A08031180
:100B18000318013E0319912DC0073B080311031860
:100B2800013E0319982DC1074908B800B901BA0157
:100B3800BB013808C407390803110318013E03191B
:100B4800A62DC5073A0803110318013E0319AD2D58
:100B5800C6073B0803110318013E0319B42DC70744
:100B68000830B8000310BE0DBF0DC00DC10DB80B85
:100B7800B62D3108B8003808F00034080A128A1572
:100B88004B220A128A11710883120313C9007008D4
:100B9800C8004808B8004908B900BA01BB013808BC
:100BA800BE07390803110318013E0319DC2DBF07DE
:100BB8003A0803110318013E0319E32DC0073B0847
:100BC80003110318013E0319EA2DC1073008B800C4
:100BD8003808F00035080A128A154B220A128A11C1
:100BE800710883120313C9007008C8004808B800C8
:100BF8004908B900BA01BB013808BE073908031112
:100C08000318013E0319092EBF073A0803110318F8
:100C1800013E0319102EC0073B0803110318013EBB
:100C28000319172EC1070830B8000310BE0DBF0DF9
:100C3800C00DC10DB80B192E3008B8003808F000E7
:100C480034080A128A154B220A128A117108831273
:100C58000313C9007008C8004808B8004908B9005B
:100C6800BA01BB013808BE07390803110318013E51
:100C780003193F2EBF073A0803110318013E031951
:100C8800462EC0073B0803110318013E03194D2ED9
:100C9800C1073108B8003808F00036080A128A156A
:100CA8004B220A128A11710883120313C9007008B3
:100CB800C8004808B8004908B900BA01BB0138089B
:100CC800C407390803110318013E03196C2EC50720
:100CD8003A0803110318013E0319732EC6073B088F
:100CE80003110318013E03197A2EC7073208B8000A
:100CF8003808F00035080A128A154B220A128A11A0
:100D0800710883120313C9007008C8004808B800A6
:100D18004908B900BA01BB013808C40739080311EA
:100D28000318013E0319992EC5073A080311031841
:100D3800013E0319A02EC6073B0803110318013E04
:100D48000319A72EC7073208B8003808F00036087C
:100D58000A128A154B220A128A1171088312031388
:100D6800C9007008C8004808B8004908B900BA01A5
:100D7800BB0108300310B80DB90DBA0DBB0DFF3E0D
:100D8800031DBE2E3808C407390803110318013E95
:100D98000319CF2EC5073A0803110318013E03199A
:100DA800D62EC6073B0803110318013E0319DD2E92
:100DB800C7073E08B8003F08B9004008BA00410814
:100DC800BB0018300310BB0CBA0CB90CB80CFF3EB2
:100DD800031DE62E3808C407390803110318013E1D
:100DE8000319F72EC5073A0803110318013E031922
:100DF800FE2EC6073B0803110318013E0319052FF1
:100E0800C7070830B8000310BE0DBF0DC00DC10DD7
:100E1800B80B072F43084207B800B901B90D3808C5
:100E2800823EC80039080318013EFF3EC900392F29
:100E38000130B8000310C40DC50DC60DC70DB80BA1
:100E48001E2FC11F282F292F2A2F44140130B80024
:100E58000310BE0DBF0DC00DC10DB80B2C2FFF30F8
:100E6800C8070318C90AFF30C907C61F3C2F3D2F02
:100E78001C2FC201C11F412F422F5E2FFF303E059C
:100E8800B800FF303F05B900FF304005BA007F3099
:100E98004105BB003B083A04390438040319552FAF
:100EA800562F592FC201C20A5E2F441C5C2F5D2F9A
:100EB8005E2F562F42080319622F632F942F01309B
:100EC800C407003003180130C5070030031801308B
:100ED800C607003003180130C707471C742F752F49
:100EE800942F4408B8004508B9004608BA004708D6
:100EF800BB000130BC003B0DBB0CBA0CB90CB80CE4
:100F0800BC0B7F2F3B08C7003A08C6003908C5004C
:100F18003808C4000130C8070318C90A0030C907D7
:100F28004908803AFF0080307F02031D9D2FFF3063
:100F38004802031CA02FA12FAC2F7F30831203136C
:100F4800C7008030C6000030C5000030C400E12F63
:100F5800831203134908803AFF0080307F02031D83
:100F6800B72F013048020318BA2FBB2FC72F003004
:100F780083120313C7000030C6000030C5000030DC
:100F8800C400BD01E12F831203134808B8003808D4
:100F9800C300FF30C405FF30C5057F30C6050030EB
:100FA800C705431CD82FD92FDA2FC6174308B80016
:100FB8000310380CB9003908C7003D08B8003808D4
:100FC800C7044708B3004608B2004508B100440802
:100FD800B000080083120313E801E901EA01EB01FC
:100FE800EC01ED0183160313A001A101A201A301E5
:100FF80083010A128A156B2EFF1B0A2883137F1898
:1010080083170008840A0319FF0A080008308A00B9
:101018000408840A82070034013400340A34003496
:1010280064340034E83403341034273443344F3400
:1010380055344E345434003453344E3453345234CB
:1010480000344134443443340034253464340034A7
:1013540001300A128A15DA210A128A1508000A12C3
:101364008A15CD210A128A15831603131114080055
:101374000A128A15CD210A128A1583160313111530
:1013840008000A128A15CD210A128A1570088312E0
:10139400031393000800831603131419D229D329C5
:1013A400CD2911081F39031DD829D929CD290800B1
:1013B400F20083120313061372088800861706309E
:1013C400F1003030F000F00BE529F10BE5290000C5
:1013D4008312031386130800F4007303031DF32917
:1013E400F429FB2974087F3E0A128A15DA210A12AD
:1013F4008A1502307306031D002A012A082A74087C
:10140400BF3E0A128A15DA210A128A1508008312CD
:101414000313B4001A30AD002D08A0003408AE0048
:10142400AF012E08A1002F08A20030300A128A153D
:1014340083250A128A153030F3000030F4000A12B2
:101444008A1512230A128A150800803083120313A6
:10145400AB062F08F3002E08F2002D08F1002C082B
:10146400F0002B08F7002A08F6002908F5002808E0
:10147400F4000A128A11F5210A128A1573088312DC
:101484000313AB007208AA007108A9007008A80031
:101494000800F800F401F5017008F200F301720885
:1014A400F6007308F700781C582A592A5F2A760830
:1014B400F4070318F50A7708F50701300310F60D51
:1014C400F70DFF3E031D602A0310F80C7808031D76
:1014D4006C2A6D2A552A7508F1007408F00008007A
:1014E4000A128A15CD210A128A158316031391153F
:1014F4000A128A15CD210A128A15831203131308BE
:10150400F200F3017208F4007308F5000A128A1558
:10151400CD210A128A1570037104031D922A932A9D
:10152400972A8316031391129A2A8316031391168A
:1015340011167508F1007408F000080028308312B1
:1015440003139400831603139101831203132008D9
:10155400A4002108A5002208A6002308A700023041
:101564000310A40DA50DA60DA70DFF3E031DB22A61
:101574002708F3002608F2002508F1002408F000EB
:101584000030F7003D30F6000930F5000030F4007B
:101594000A128A15E7230A128A157008FF3E831679
:1015A400031393009401871507160800780879043B
:1015B4000319DD2ADE2A0D2BFD01FD0AEC2A013078
:1015C4000310F80DF90DFF3E031DE22A0130FC0063
:1015D4007C08FD07F91FEF2AF02AE12A79087B022B
:1015E400031DF62A78087A02031CF92AFA2A002B2A
:1015F4007808FA027908031CFB03FB02013003108C
:10160400F90CF80CFF3E031D012B0130FD02031DF4
:101614000C2B0D2BF02A7B08F9007A08F80008003F
:10162400F801F901372B78087307F6007408F50000
:101634000318F50AF81F1F2BF5037508F700770840
:1016440083120313FF00760884000A128A1500200F
:101654000A128A150A128A1104200A128A15013004
:10166400F8070318F90A0030F90778087307F60039
:101674007408F5000318F50AF81F412BF5037508E3
:10168400F700770883120313FF00760884000A1218
:101694008A1500200A128A15003A031D522B532B77
:1016A400152B0800F501F6017008710403195B2B72
:1016B4005C2B932BF701F70A6A2B01300310F00D12
:1016C400F10DFF3E031D602B0130F4007408F70791
:1016D400F11F6D2B6E2B5F2B01300310F50DF60DF2
:1016E400FF3E031D6F2B71087302031D7B2B7008D3
:1016F4007202031C7E2B7F2B862B7008F20271086A
:10170400031CF303F302751401300310F10CF00C05
:10171400FF3E031D872B0130F702031D922B932BF1
:101724006E2B7608F1007508F00008001430F40000
:101734007930F300F30B9C2BF40B9C2BA12B303052
:101744000A128A15DA210A128A150730F4007D304C
:10175400F300F30BAB2BF40BAB2B30300A128A15CE
:10176400DA210A128A150F30F4004730F300F30B24
:10177400B92BF40BB92BBE2B30300A128A15DA219F
:101784000A128A153530F300F30BC62B38300A12CF
:101794008A15DA210A128A1510300A128A15DA21FA
:1017A4000A128A1501300A128A15DA210A128A15D8
:1017B40006300A128A15DA210A128A150C300A1226
:1017C4008A15DA210A128A1508000030FC0000305C
:1017D400FB000030FA000030F90073087204710451
:1017E40070040319F62BF72B442CFD01FD0A072C7A
:1017F4000130F8000310F00DF10DF20DF30DF80BAC
:10180400FC2B0130F8007808FD07F31F0A2C0B2C81
:10181400FA2B0130F8000310F90DFA0DFB0DFC0D45
:10182400F80B0D2C73087702031D222C7208760224
:10183400031D222C71087502031D222C70087402EA
:10184400031C252C262C352C7008F4027108031C6B
:10185400710FF5027208031C720FF6027308031C61
:10186400730FF702791401300310F30CF20CF10C2E
:10187400F00CFF3E031D362C0130FD02031D432CEA
:10188400442C0B2C7C08F3007B08F2007A08F1004E
:101894007908F00008000310720D730DF400740849
:1018A400FA007A08031D572C582C612C0030F300E1
:1018B4000030F2000030F1000030F000C62C700857
:1018C400F4007108F5007208F6007308F7001F3081
:1018D4000310F70CF60CF50CF40CFF3E031D6A2CF8
:1018E4007408F8007808F900F217FF30F005FF30AB
:1018F400F105FF30F2050030F3059630FA02FA1FC5
:10190400842C852C9F2C7A08803A973E03188B2CC4
:101914008C2C8D2C582C01300310F30CF20CF10C90
:10192400F00CFF3E031D8E2C0130F4007408FA07FE
:10193400031D9D2C9E2C8D2CB62C20307A02031C6A
:10194400A42CA52CB12C582C0130F4000310F00D5C
:10195400F10DF20DF30DF40BA82C0130FA027A0804
:10196400031DB52CB62CA62C79080319BA2CBB2C54
:10197400C62CF009F109F209F309F00A0319F10A76
:101984000319F20A0319F30A080083120313A000CF
:1019940020080319CE2CCF2CE32CF91FD22CD32CE6
:1019A400E32C7609A2007709A3007809A400790939
:1019B400A500A20A0319A30A0319A40A0319A50A74
:1019C400EB2C7908A5007808A4007708A300760812
:1019D400A2007908780477047604031DF22CF32C12
:1019E400FC2C0030F9000030F8000030F700003023
:1019F400F600822D9630FA007A08A1000E2D0130EF
:101A0400FA007A08A10701300310A50CA40CA30C5A
:101A1400A20CFF3E031D062DFE302505031D132DCC
:101A2400142D012D302D0130FA007A08A107013060
:101A3400A207003003180130A30700300318013057
:101A4400A407003003180130A50701300310A50CCA
:101A5400A40CA30CA20CFF3E031D282DFF3025056A
:101A6400031D352D362D152D422D0130A1020130D7
:101A7400FA000310A20DA30DA40DA50DFA0B3B2D26
:101A8400A41B452D462D4C2D0230210203184B2D4D
:101A94004C2D372D21184F2D502D582DFF30A205D8
:101AA400FF30A3057F30A405FF30A5050310A10C6A
:101AB4002108FA00FB01FC01FD0118300310FA0DA6
:101AC400FB0DFC0DFD0DFF3E031D602D7A08A204E5
:101AD4007B08A3047C08A4047D08A504200803193A
:101AE400742D752D7A2DF91F782D792D7A2DA51742
:101AF4002508F9002408F8002308F7002208F60056
:101B0400080083120313AB002130A3002308A600AE
:101B1400542E25302C060319902D912D9D2D2C0823
:101B2400A3002B0884002308831380000130A30042
:101B34002308AB07542EA7010130A007FF3020076C
:101B440084000A128A150A200A128A15AC00A3001E
:101B5400A4012408003A0319B02D542E2308003A96
:101B64000319662E643A0319BB2D0D3A0319BB2DD4
:101B7400542E2608840083130008A900840A000850
:101B8400AA000230A3002308A607AA1FCA2DCB2D42
:101B9400D42D0330A3002308A704A909AA09A90A7C
:101BA4000319AA0AAC01AC0A2C08A3002307013EBE
:101BB40084000A128A150A200A128A15A4000A123D
:101BC4008A150A200A128A15A50025082A02031D6F
:101BD400ED2D240829020318F02DF12DF22DFC2DF2
:101BE4000130A3002308AC0705302C06031DFB2D90
:101BF400FC2DD62D270803390319012E022E0D2E94
:101C04002D30A3002B0884002308831380000130A7
:101C1400A3002308AB072C08A3002308A8004B2E1D
:101C24000A30F8000030F9002808A3002307013E19
:101C340084000A128A150A200A128A15F0000A1270
:101C44008A150A200A128A15F1002A08F3002908C5
:101C5400F2000A128A1554230A128A157108FB002D
:101C64007008FA000A128A15D8220A128A1578080E
:101C7400303E83120313A4002408AC002C08A300F4
:101C84002B0884002308831380000130A300230859
:101C9400AB07FF30A3002308A807280A031D532E0F
:101CA400542E122E0130A007FF30200784000A12A0
:101CB4008A150A200A128A15A3002308AC002C08EE
:101CC400031D652E662E8B2D2B0884008313800143
:101CD40008008316031788018901831603138501FD
:101CE40086018801831203138501860188010A1283
:101CF4008A1598230A128A15003083120313A3004D
:101D04000130A2008630A100A030A0000A128A157A
:101D1400A0220A128A150A128A15AA210A128A1501
:101D2400F301F30A02300A128A15EE210A128A1507
:101D34001630F3008030F4000A128A1512230A12B6
:101D44008A15F301F30A07300A128A15EE210A12E2
:101D54008A150B30F3008030F4000A128A1512231E
:101D64000A128A15F301F30A0D300A128A15EE21BC
:101D74000A128A151130F3008030F4000A128A1511
:101D840012230A128A150A128A15B1210A128A1517
:101D94005130F0000030F1000A128A15C3210A12F2
:101DA4008A150030F000F1000A128A1572220A1214
:101DB4008A15700883120313E4007108E500E60134
:101DC400E7016708F9006608F8006508F700640889
:101DD400F60000300A128A15C7240A128A157908F7
:101DE40083120313EB007808EA007708E900760809
:101DF400E8000A128A15BA210A128A150D308312D4
:101E04000313E500FB30E400E40B062FE50B062F7B
:101E1400433083120313CD007F30CC000030CB005D
:101E24000030CA004030B300A030B2000030B1002E
:101E34000030B0006B08B7006A08B6006908B50046
:101E44006808B4000A128A118D240A128A158312B2
:101E540003133308D1003208D0003108CF00300812
:101E6400CE000A128A1118200A128A15831203134B
:101E74004D08EB004C08EA004B08E9004A08E8006A
:101E84006B08F3006A08F2006908F1006808F000C2
:101E94000A128A154D240A128A1570088312031334
:101EA400E4006408ED004230B300C830B2000030F2
:101EB400B1000030B0006D08E400E501E601E7017F
:101EC4006708F9006608F8006508F7006408F6007A
:101ED40001300A128A15C7240A128A157908831256
:101EE4000313AB007808AA007708A9007608A800B5
:101EF4006B08AF006A08AE006908AD006808AC0062
:101F04000A128A1527220A128A15831203132B0830
:101F1400B7002A08B6002908B5002808B4000A1238
:101F24008A118D240A128A15831203133308831627
:101F34000313A30083120313320883160313A200AE
:101F440083120313310883160313A10083120313AE
:101F5400300883160313A0002308F3002208F200BC
:101F64002108F1002008F0000A128A154D240A12F3
:101F74008A15700883120313E4006408EC0002302D
:101F8400E4006408F30001300A128A15EE210A12F3
:101F94008A15831203136D080A128A1509220A127C
:101FA4008A152E300A128A1104200A128A150A3060
:101FB400831203136C02031CE02FE12FE82F6C083B
:101FC4000A128A1509220A128A15F62F30300A12CB
:101FD4008A1104200A128A15831203136C080A1248
:101FE4008A1509220A128A1556300A128A11042007
:0C1FF4000A128A15C52E0A128A11002854
:04400E00D4E0FFFFFC
:00000001FF
