:020000040000FA
:060000000A128A11EB2F29
:10000E00F800F401F5017008F200F3017208F60031
:10001E007308F700781C142815281B287608F40797
:10002E000318F50A7708F50701300310F60DF70DE2
:10003E00FF3E031D1C280310F80C7808031D28280A
:10004E00292811287508F1007408F0000800031023
:10005E00720D730DF4007408FA007A08031D382827
:10006E00392842280030F3000030F2000030F10051
:10007E000030F000A7287008F4007108F50072082F
:10008E00F6007308F7001F300310F70CF60CF50C92
:10009E00F40CFF3E031D4B287408F8007808F90095
:1000AE00F217FF30F005FF30F105FF30F20500309A
:1000BE00F3059630FA02FA1F6528662880287A081A
:1000CE00803A973E03186C286D286E283928013027
:1000DE000310F30CF20CF10CF00CFF3E031D6F2815
:1000EE000130F4007408FA07031D7E287F286E285D
:1000FE00972820307A02031C8528862892283928D2
:10010E000130F4000310F00DF10DF20DF30DF40BB0
:10011E0089280130FA027A08031D96289728872825
:10012E00790803199B289C28A728F009F109F209E0
:10013E00F309F00A0319F10A0319F20A0319F30A73
:10014E00080083120313AB002130A3002308A6007E
:10015E00792925302C060319B528B628C2282C0873
:10016E00A3002B0884002308831380000130A30012
:10017E002308AB077929A7010130A007FF3020071C
:10018E0084000A128A150A200A128A11AC00A300F2
:10019E00A4012408003A0319D52879292308003A26
:1001AE0003198B29643A0319E0280D3A0319E02844
:1001BE0079292608840083130008A900840A000800
:1001CE00AA000230A3002308A607AA1FEF28F028D2
:1001DE00F9280330A3002308A704A909AA09A90A2C
:1001EE000319AA0AAC01AC0A2C08A3002307013E8E
:1001FE0084000A128A150A200A128A11A4000A1211
:10020E008A150A200A128A11A50025082A02031D42
:10021E00122924082902031815291629172921291C
:10022E000130A3002308AC0705302C06031D20293E
:10023E002129FB28270803390319262927293229C2
:10024E002D30A3002B088400230883138000013077
:10025E00A3002308AB072C08A3002308A8007029CD
:10026E000A30F8000030F9002808A3002307013EE9
:10027E0084000A128A150A200A128A11F0000A1244
:10028E008A150A200A128A11F1002A08F300290899
:10029E00F2000A128A15D6210A128A117108FB0081
:1002AE007008FA000A128A155A210A128A11780861
:1002BE00303E83120313A4002408AC002C08A300C4
:1002CE002B0884002308831380000130A300230829
:1002DE00AB07FF30A3002308A807280A031D7829BF
:1002EE00792937290130A007FF30200784000A1230
:1002FE008A150A200A128A11A3002308AC002C08C2
:10030E00031D8A298B29B0282B08840083138001B2
:10031E0008008316031788018901831603138501CC
:10032E0086018801831203138501860188010A1252
:10033E008A151A220A128A11003083120313A3009F
:10034E000130A2008630A100A030A0000A128A154A
:10035E0022210A128A110A168A11C6270A128A1136
:10036E00F301F30A02300A128A154D200A128A117D
:10037E001630F3008030F4000A128A1594210A1206
:10038E008A11F301F30A07300A128A154D200A1258
:10039E008A111130F3008030F4000A128A1594216C
:1003AE000A128A11F301F30A0C300A128A154D2033
:1003BE000A128A110B30F3008030F4000A128A15EB
:1003CE0094210A128A110A168A11CD270A128A114D
:1003DE005130F0000030F1000A128A152F200A1257
:1003EE008A110030F000F1000A128A15F4200A1268
:1003FE008A11700883120313E4007108E500E60108
:10040E00E7016708F9006608F8006508F700640858
:10041E00F60000300A128A15CF220A128A117908C4
:10042E0083160313A7007808A6007708A5007608A0
:10043E00A4000A168A11D6270A128A110D308312C9
:10044E000313E500FB30E400E40B2B2AE50B2B2A0B
:10045E000A168A11CD270A128A116130F000003077
:10046E00F1000A128A152F200A128A110030F000AC
:10047E00F1000A128A15F4200A128A1170088312EA
:10048E000313E4006408EA000A168A11D6270A123A
:10049E008A110D3083120313E500FB30E400E40BE8
:1004AE00562AE50B562A433083120313CD007F30B4
:1004BE00CC000030CB000030CA004030B300A0307A
:1004CE00B2000030B1000030B000831603132708CD
:1004DE0083120313B7008316031326088312031324
:1004EE00B60083160313250883120313B500831673
:1004FE000313240883120313B4000A128A118A24E8
:10050E000A128A11831203133308D1003208D00065
:10051E003108CF003008CE000A128A158B230A123A
:10052E008A11831203134D0883160313A700831237
:10053E0003134C0883160313A600831203134B08F0
:10054E0083160313A500831203134A08831603139D
:10055E00A4002708F3002608F2002508F10024085D
:10056E00F0000A128A112E200A128A1170088312C4
:10057E000313E4006408EC004230B300C830B2004C
:10058E000030B1000030B0006C08E400E501E60177
:10059E00E7016708F9006608F8006508F7006408C7
:1005AE00F60001300A128A15CF220A128A11790832
:1005BE0083120313AB007808AA007708A900760807
:1005CE00A80083160313270883120313AF008316A4
:1005DE000313260883120313AE0083160313250894
:1005EE0083120313AD00831603132408831203131F
:1005FE00AC000A128A1586200A128A11831203137E
:10060E002B08B7002A08B6002908B5002808B40040
:10061E000A128A118A240A128A11831203133308CA
:10062E0083160313A30083120313320883160313D6
:10063E00A20083120313310883160313A100831241
:10064E000313300883160313A0002308F3002208B7
:10065E00F2002108F1002008F0000A128A112E2063
:10066E000A128A11700883120313E4006408EB0067
:10067E000230E4006408F30001300A128A154D209E
:10068E000A128A11831203136C080A128A15682043
:10069E000A128A112E300A128A1539200A128A116C
:1006AE000A30831203136B02031C5E2B5F2B662B27
:1006BE006B080A128A1568200A128A11742B3030C0
:1006CE000A128A1539200A128A11831203136B0833
:1006DE000A128A1568200A128A1156300A128A15D1
:1006EE0039200A128A110A30831203136A02031880
:1006FE00812B822B9E2B0230E4006408F30008301D
:10070E000A128A154D200A128A111D30F30080300C
:10071E00F4000A128A1594210A128A118312031305
:10072E006A080A128A1568200A128A11B02B023042
:10073E00E4006408F30008300A128A154D200A12EC
:10074E008A11831203136A080A128A1568200A1284
:10075E008A110A168A11CD270A128A11D030F0009A
:10076E000030F1000A128A152F200A128A11003069
:10077E00F000F1000A128A152F200A128A110A16A9
:10078E008A11D6270A128A110A168A11CD270A1241
:10079E008A11D130F0000030F1000A128A152F2094
:1007AE000A128A110030F000F1000A128A15F420A4
:1007BE000A128A117108F7007008F6000A128A15DB
:1007CE00CF200A128A11760883120313E4006408FC
:1007DE00E9000A168A11D6270A128A110A168A11F8
:1007EE00CD270A128A11D130F0000030F1000A1222
:1007FE008A152F200A128A110030F000F1000A1219
:10080E008A15F4200A128A117108F7007008F60092
:10081E000A128A15CF200A128A1176088312031340
:10082E00E4006408E8000A168A11D6270A128A1113
:10083E000A168A11CD270A128A11D130F000003023
:10084E00F1000A128A152F200A128A110030F000C8
:10085E00F1000A128A15F4200A128A110A168A1158
:10086E00D6270A128A11023083120313E400640899
:10087E00F3000C300A128A154D200A128A110A3022
:10088E0083120313680203184D2C4E2C5D2C30304E
:10089E000A128A1539200A128A1183120313680864
:1008AE000A128A1568200A128A11632C68080A1225
:1008BE008A1568200A128A113A300A128A153920CE
:1008CE000A128A110A308312031369020318702C5C
:1008DE00712C802C30300A128A1539200A128A1196
:1008EE008312031369080A128A1568200A128A11E4
:1008FE00EA2969080A128A1568200A128A11EA2959
:10090E000A128A1100288312031333088039B800A3
:10091E003808BD003308B8003807B9003908C300DD
:10092E00B21F9A2C9B2C9C2C431443080319A02C09
:10093E00A12CB02C430A031DA52CA62CAE2C0030E6
:10094E00B3000030B2000030B1000030B000B2177A
:10095E00B82C0030B3000030B2000030B1000030CF
:10096E00B00037088039B8003808BD063708B8001F
:10097E003807B9003908C200B61FC62CC72CC82CC0
:10098E00421442080319CC2CCD2CDC2C420A031D38
:10099E00D12CD22CDA2C0030B7000030B60000304B
:1009AE00B5000030B400B617E42C0030B7000030AC
:1009BE00B6000030B5000030B40042080319E82C30
:1009CE00E92CEE2C4308031DED2CEE2CF72C0030F9
:1009DE00B3000030B2000030B1000030B000EA2F9A
:1009EE003008B8003808F00036080A128A110720BD
:1009FE000A128A11710883120313C9007008C80005
:100A0E004808B800B901BA01BB013B08C1003A0859
:100A1E00C0003908BF003808BE004908B800B90147
:100A2E00BA01BB013B08C7003A08C6003908C50029
:100A3E003808C4003108B8003808F00035080A122A
:100A4E008A1107200A128A11710883120313C90032
:100A5E007008C8004808B800B901BA01BB013808CF
:100A6E00BE07390803110318013E03193F2DBF07B6
:100A7E003A0803110318013E0319462DC0073B081F
:100A8E0003110318013E03194D2DC1074908B80083
:100A9E00B901BA01BB013808C4073908031103189C
:100AAE00013E03195B2DC5073A0803110318013ED9
:100ABE000319622DC6073B0803110318013E0319E3
:100ACE00692DC7073208B8003808F00034080A123A
:100ADE008A1107200A128A11710883120313C900A2
:100AEE007008C8004808B800B901BA01BB0138083F
:100AFE00BE07390803110318013E0319872DBF07DE
:100B0E003A0803110318013E03198E2DC0073B0846
:100B1E0003110318013E0319952DC1074908B800AA
:100B2E00B901BA01BB013808C4073908031103180B
:100B3E00013E0319A32DC5073A0803110318013E00
:100B4E000319AA2DC6073B0803110318013E03190A
:100B5E00B12DC7070830B8000310BE0DBF0DC00D74
:100B6E00C10DB80BB32D3108B8003808F0003408A9
:100B7E000A128A1107200A128A11710883120313AE
:100B8E00C9007008C8004808B8004908B900BA0181
:100B9E00BB013808BE07390803110318013E0319BB
:100BAE00D92DBF073A0803110318013E0319E02D92
:100BBE00C0073B0803110318013E0319E72DC107B7
:100BCE003008B8003808F00035080A128A110720DC
:100BDE000A128A11710883120313C9007008C80023
:100BEE004808B8004908B900BA01BB013808BE0769
:100BFE00390803110318013E0319062EBF073A08E0
:100C0E0003110318013E03190D2EC0073B080311F3
:100C1E000318013E0319142EC1070830B800031043
:100C2E00BE0DBF0DC00DC10DB80B162E3008B8008D
:100C3E003808F00034080A128A1107200A128A11A5
:100C4E00710883120313C9007008C8004808B80061
:100C5E004908B900BA01BB013808BE0739080311AB
:100C6E000318013E03193C2EBF073A08031103185F
:100C7E00013E0319432EC0073B0803110318013E22
:100C8E0003194A2EC1073108B8003808F00036089B
:100C9E000A128A1107200A128A117108831203138D
:100CAE00C9007008C8004808B8004908B900BA0160
:100CBE00BB013808C407390803110318013E031994
:100CCE00692EC5073A0803110318013E0319702E49
:100CDE00C6073B0803110318013E0319772EC707F9
:100CEE003208B8003808F00035080A128A110720B9
:100CFE000A128A11710883120313C9007008C80002
:100D0E004808B8004908B900BA01BB013808C40741
:100D1E00390803110318013E0319962EC5073A0828
:100D2E0003110318013E03199D2EC6073B0803113C
:100D3E000318013E0319A42EC7073208B80038085D
:100D4E00F00036080A128A1107200A128A11710859
:100D5E0083120313C9007008C8004808B800490878
:100D6E00B900BA01BB0108300310B80DB90DBA0DA8
:100D7E00BB0DFF3E031DBB2E3808C40739080311F7
:100D8E000318013E0319CC2EC5073A0803110318A8
:100D9E00013E0319D32EC6073B0803110318013E6B
:100DAE000319DA2EC7073E08B8003F08B9004008FD
:100DBE00BA004108BB0018300310BB0CBA0CB90CBA
:100DCE00B80CFF3E031DE32E3808C4073908031183
:100DDE000318013E0319F42EC5073A080311031830
:100DEE00013E0319FB2EC6073B0803110318013EF3
:100DFE000319022FC7070830B8000310BE0DBF0D30
:100E0E00C00DC10DB80B042F43084207B800B9013D
:100E1E00B90D3808823EC80039080318013EFF3E5E
:100E2E00C900362F0130B8000310C40DC50DC60D14
:100E3E00C70DB80B1B2FC11F252F262F272F44148C
:100E4E000130B8000310BE0DBF0DC00DC10DB80BA3
:100E5E00292FFF30C8070318C90AFF30C907C61F5C
:100E6E00392F3A2F192FC201C11F3E2F3F2F5B2F53
:100E7E00FF303E05B800FF303F05B900FF3040059A
:100E8E00BA007F304105BB003B083A0439043804F0
:100E9E000319522F532F562FC201C20A5B2F441C27
:100EAE00592F5A2F5B2F532F420803195F2F602F94
:100EBE00912F0130C407003003180130C5070030F0
:100ECE0003180130C607003003180130C707471C4E
:100EDE00712F722F912F4408B8004508B9004608AB
:100EEE00BA004708BB000130BC003B0DBB0CBA0C6E
:100EFE00B90CB80CBC0B7C2F3B08C7003A08C600D7
:100F0E003908C5003808C4000130C8070318C90ADB
:100F1E000030C9074908803AFF0080307F02031D68
:100F2E009A2FFF304802031C9D2F9E2FA92F7F3032
:100F3E0083120313C7008030C6000030C500003096
:100F4E00C400DE2F831203134908803AFF0080305D
:100F5E007F02031DB42F013048020318B72FB82F9C
:100F6E00C42F003083120313C7000030C6000030B8
:100F7E00C5000030C400BD01DE2F831203134808E4
:100F8E00B8003808C300FF30C405FF30C5057F30F8
:100F9E00C6050030C705431CD52FD62FD72FC61731
:100FAE004308B8000310380CB9003908C7003D08D3
:100FBE00B8003808C7044708B3004608B200450811
:100FCE00B1004408B000080083120313E801E901E0
:100FDE00EA01EB01EC0183160313A001A101A201AA
:100FEE00A301A401A501A601A70183010A128A117A
:100FFE009029FF1B0A2883137F1883170008840A81
:10100E000319FF0A080008308A000408840A8207C0
:10101E000034013400340A34003464340034E834CB
:10102E00033410342734543449344D344534523457
:10103E00003443344F344E34543400344134443449
:0E104E0043340034253464340034303400342C
:10105E000A168A11DF270A128A15700883120313E3
:10106E0093000800F200831203130617720888001B
:10107E0086170630F1003030F000F00B4428F10BEB
:10108E00442800008312031386130800F400730330
:10109E00031D522853285A2874087F3E0A168A11B7
:1010AE00EC270A128A1502307306031D5F2860288A
:1010BE0067287408BF3E0A168A11EC270A128A1591
:1010CE00080083120313B4001A30AD002D08A000DF
:1010DE003408AE00AF012E08A1002F08A200303058
:1010EE000A128A11A8200A128A153030F300003035
:1010FE00F4000A128A1594210A128A15080080300B
:10110E0083120313AB062F08F3002E08F2002D08EE
:10111E00F1002C08F0002B08F7002A08F600290829
:10112E00F5002808F4000A128A1568250A128A1595
:10113E00730883120313AB007208AA007108A9008A
:10114E007008A8000800F401F501701CAF28B02843
:10115E00B6287208F4070318F50A7308F50701306C
:10116E000310F20DF30DFF3E031DB72801300310DF
:10117E00F10CF00CFF3E031DBE2870087104031D18
:10118E00C928CA28AC287508F1007408F0000800B8
:10119E000F307605F80000307705F900760E0F391E
:1011AE00F000770EF039F004770E0F39F100F030C1
:1011BE00F11D0030F1040A30F2000030F3000A1283
:1011CE008A15AA200A128A1578087007F60079087F
:1011DE000318790A7107F70008000A168A11DF272B
:1011EE000A128A158316031391150A168A11DF2720
:1011FE000A128A15831203131308F200F301720800
:10120E00F4007308F5000A168A11DF270A128A15F0
:10121E0070037104031D142915291929831603134C
:10122E0091121C2983160313911611167508F100DD
:10123E007408F000080028308312031394008316FC
:10124E0003139101831203132008A4002108A500A3
:10125E002208A6002308A70002300310A40DA50D36
:10126E00A60DA70DFF3E031D34292708F3002608FF
:10127E00F2002508F1002408F0000030F7003D30A0
:10128E00F6000930F5000030F4000A128A156922C2
:10129E000A128A157008FF3E8316031393009401F9
:1012AE008715071608007808790403195F29602945
:1012BE008F29FD01FD0A6E2901300310F80DF90D7D
:1012CE00FF3E031D64290130FC007C08FD07F91F59
:1012DE0071297229632979087B02031D7829780800
:1012EE007A02031C7B297C2982297808FA02790864
:1012FE00031CFB03FB0201300310F90CF80CFF3E3C
:10130E00031D83290130FD02031D8E298F297229A9
:10131E007B08F9007A08F8000800F801F901B929EC
:10132E0078087307F6007408F5000318F50AF81F1D
:10133E00A129F5037508F700770883120313FF0040
:10134E00760884000A128A1500200A128A150A12DB
:10135E008A1539200A128A150130F8070318F90A7E
:10136E000030F90778087307F6007408F5000318C3
:10137E00F50AF81FC329F5037508F70077088312DD
:10138E000313FF00760884000A128A1500200A1241
:10139E008A15003A031DD429D52997290800F5018D
:1013AE00F601700871040319DD29DE29152AF701EB
:1013BE00F70AEC2901300310F00DF10DFF3E031D6D
:1013CE00E2290130F4007408F707F11FEF29F02924
:1013DE00E12901300310F50DF60DFF3E031DF12935
:1013EE0071087302031DFD2970087202031C002A86
:1013FE00012A082A7008F2027108031CF303F30293
:10140E00751401300310F10CF00CFF3E031D092A78
:10141E000130F702031D142A152AF0297608F1006F
:10142E007508F00008001430F4007930F300F30B67
:10143E001E2AF40B1E2A232A30300A168A11EC2794
:10144E000A128A150730F4007D30F300F30B2D2AB3
:10145E00F40B2D2A30300A168A11EC270A128A153F
:10146E000F30F4004730F300F30B3B2AF40B3B2A0A
:10147E00402A30300A168A11EC270A128A153530A6
:10148E00F300F30B482A38300A168A11EC270A1299
:10149E008A1510300A168A11EC270A128A150130A5
:1014AE000A168A11EC270A128A1506300A168A11B4
:1014BE00EC270A128A150C300A168A11EC270A122A
:1014CE008A1508000030FC000030FB000030FA00E6
:1014DE000030F90073087204710470040319782A3D
:1014EE00792AC62AFD01FD0A892A0130F800031067
:1014FE00F00DF10DF20DF30DF80B7E2A0130F80010
:10150E007808FD07F31F8C2A8D2A7C2A0130F800FB
:10151E000310F90DFA0DFB0DFC0DF80B8F2A730855
:10152E007702031DA42A72087602031DA42A7108ED
:10153E007502031DA42A70087402031CA72AA82A88
:10154E00B72A7008F4027108031C710FF5027208B5
:10155E00031C720FF6027308031C730FF702791443
:10156E0001300310F30CF20CF10CF00CFF3E031DD6
:10157E00B82A0130FD02031DC52AC62A8D2A7C0811
:10158E00F3007B08F2007A08F1007908F0000800F9
:10159E0083120313A00020080319D62AD72AEB2A98
:1015AE00F91FDA2ADB2AEB2A7609A2007709A300B3
:1015BE007809A4007909A500A20A0319A30A031940
:1015CE00A40A0319A50AF32A7908A5007808A4002D
:1015DE007708A3007608A2007908780477047604C9
:1015EE00031DFA2AFB2A042B0030F9000030F80004
:1015FE000030F7000030F6008A2B9630FA007A0899
:10160E00A100162B0130FA007A08A1070130031051
:10161E00A50CA40CA30CA20CFF3E031D0E2BFE303A
:10162E002505031D1B2B1C2B092B382B0130FA0013
:10163E007A08A1070130A207003003180130A30772
:10164E00003003180130A407003003180130A5073D
:10165E0001300310A50CA40CA30CA20CFF3E031D1D
:10166E00302BFF302505031D3D2B3E2B1D2B4A2B0A
:10167E000130A1020130FA000310A20DA30DA40D3A
:10168E00A50DFA0B432BA41B4D2B4E2B542B0230C6
:10169E0021020318532B542B3F2B2118572B582B59
:1016AE00602BFF30A205FF30A3057F30A405FF306D
:1016BE00A5050310A10C2108FA00FB01FC01FD0198
:1016CE0018300310FA0DFB0DFC0DFD0DFF3E031D32
:1016DE00682B7A08A2047B08A3047C08A4047D0866
:1016EE00A504200803197C2B7D2B822BF91F802B40
:1016FE00812B822BA5172508F9002408F800230852
:10170E00F7002208F60008008312031351088039EF
:10171E00D2005208DB005108D2005207D300530802
:10172E00E200D01F9B2B9C2B9D2B62146208031989
:10173E00A12BA22BB22B620A031DA62BA72BAF2B1C
:10174E000030D1000030D0000030CF000030CE008D
:10175E00D017D101BA2B0030D1000030D0000030AC
:10176E00CF000030CE004D088039D2005208DB0683
:10177E004D08D2005207D3005308E300CC1FC82BEC
:10178E00C92BCA2B631463080319CE2BCF2BDF2B67
:10179E00630A031DD32BD42BDC2B0030CD0000307D
:1017AE00CC000030CB000030CA00CC17CD01E72BA7
:1017BE000030CD000030CC000030CB000030CA002D
:1017CE004D084C044B044A04031DEE2BEF2B082C42
:1017DE000030D1000030D0000030CF000030CE00FD
:1017EE008030D0047F30D1045B08D2005208D1047F
:1017FE005108CD005008CC004F08CB004E08CA004F
:10180E00672D6208031D0C2C0D2C162C0030CD00FC
:10181E000030CC000030CB000030CA00672D6208CB
:10182E00D200D3015308D50063085202D400031C22
:10183E00D50354087F3EDC0055080318013E003ED8
:10184E00DD005108DA005008D9004F08D8004E08C4
:10185E00D7000030D1000030D0000030CF00003073
:10186E00CE000030E1000030E0000030DF0000303C
:10187E00DE00E3018C2C63080319462C472C672CE1
:10188E000130D2000310D70DD80DD90DDA0DD20BC1
:10189E00492C0130D2000310CE0DCF0DD00DD10D3D
:1018AE00D20B522CE11F5C2C5D2C5E2C4E140130A1
:1018BE00D2000310DE0DDF0DE00DE10DD20B602C1A
:1018CE004D085A02031D752C4C085902031D752C28
:1018DE004B085802031D752C4A085702031C782C1E
:1018EE00792C882C61174A08D7024B08031C4B0F22
:1018FE00D8024C08031C4C0FD9024D08031C4D0F87
:10190E00DA020130D2005208E3071A306302031CD8
:10191E00912C922C422C5A0859045804570403193E
:10192E00992C9A2CB92C5E14B92C0130D2000310CC
:10193E00CE0DCF0DD00DD10DD20B9E2CE11FA82CAC
:10194E00A92CAA2C4E140130D2000310DE0DDF0D8F
:10195E00E00DE10DD20BAC2CFF30DC070318DD0AD5
:10196E00FF30DD07D01FBC2CBD2C9C2CE301E11FEA
:10197E00C12CC22CDE2CFF305E05D200FF305F057D
:10198E00D300FF306005D4007F306105D5005508C7
:10199E005404530452040319D52CD62CD92CE3012C
:1019AE00E30ADE2C4E1CDC2CDD2CDE2CD62C630840
:1019BE000319E22CE32C142D0130CE07003003184E
:1019CE000130CF07003003180130D0070030031864
:1019DE000130D107511CF42CF52C142D4E08D200D9
:1019EE004F08D3005008D4005108D5000130D6005E
:1019FE00550DD50CD40CD30CD20CD60BFF2C550890
:101A0E00D1005408D0005308CF005208CE00013048
:101A1E00DC070318DD0A0030DD075D08803AFF00A1
:101A2E0080307F02031D1D2DFF305C02031C202D14
:101A3E00212D2F2DFF3083120313DC000030DD002B
:101A4E000030D1000030D0000030CF000030CE008A
:101A5E00831203135D08803AFF0080307F02031D5E
:101A6E003A2D01305C0203183D2D3E2D4B2D831275
:101A7E000313DC01DD010030D1000030D000003056
:101A8E00CF000030CE00DB01831203135C08D200BE
:101A9E005208E200621C542D552D572DD0175B2D88
:101AAE007F30D2005208D0056208D2000310520CCB
:101ABE00D3005308D1005B08D2005208D104FF2B8B
:101ACE0008007308803983120313A0002008F80061
:101ADE007308A0002007A1002108FA00F21F782D3C
:101AEE00792D7A2D7A147A0803197E2D7F2D8F2D5C
:101AFE007A0A031D832D842D8C2D0030F3000030C7
:101B0E00F2000030F1000030F000F217F301972DD3
:101B1E000030F3000030F2000030F1000030F00031
:101B2E0077088039A0002008F90079087806031993
:101B3E00A12DA22DA32D78177708A0002007A100B4
:101B4E002108F900F61FAC2DAD2DAE2D79147908B4
:101B5E000319B22DB32DC32D790A031DB72DB82D40
:101B6E00C02D0030F7000030F6000030F5000030D8
:101B7E00F400F617F701CB2D0030F7000030F60019
:101B8E000030F5000030F4007A0879020318D02DE9
:101B9E00D12D152E781FD42DD52DD92D8030A00006
:101BAE002008F8067A08A0002008FB007908A0009B
:101BBE002008FA007B08A0002008F9007008A00099
:101BCE002008FB007408A0002008F0007B08A0008D
:101BDE002008F4007108A0002008FB007508A00082
:101BEE002008F1007B08A0002008F5007208A00074
:101BFE002008FB007608A0002008F2007B08A00059
:101C0E002008F6007308A0002008FB007708A0004B
:101C1E002008F3007B08A0002008F700FB017908DC
:101C2E00A000A1012108A3007A082002A200031C33
:101C3E00A3032308803AFF0080307F02031D292E64
:101C4E001A302202031C2C2E2D2E6E2E73087204B7
:101C5E0071047004031D342E362E0130372E0030E1
:101C6E0083120313A0002008FB000030F3000030A5
:101C7E00F2000030F1000030F0007908A0002008DA
:101C8E00FA00742E7B1C4C2E4D2E582E7B08831280
:101C9E000313A0000310200C0138A1002108FB0043
:101CAE005A2E0310FB0C701C5D2E5E2E5F2EFB1742
:101CBE00013083120313A000730DF30CF20CF10C20
:101CCE00F00CA00B632E0130A0002008FA07790853
:101CDE007A02031C732E742E492E781B772E782EC3
:101CEE00C72E7A08031D7C2E7D2E862E0030F30023
:101CFE000030F2000030F1000030F000FF2F7408C9
:101D0E00F007750803110318013E03198F2EF10712
:101D1E00760803110318013E0319962EF207770871
:101D2E0003110318013E03199D2EF307731CA02EF9
:101D3E00A12E7F2F7B1CA42EA52EB02E7B088312E6
:101D4E000313A0000310200C0138A1002108FB0092
:101D5E00B22E0310FB0C701CB52EB62EB72EFB1731
:101D6E00013083120313A000730DF30CF20CF10C6F
:101D7E00F00CA00BBB2E0130A0002008FA077F2F1D
:101D8E007308803AFF007708803A7F02031DD92E30
:101D9E0076087202031DD92E75087102031DD92E05
:101DAE00740870020318DC2EDD2E372FFF308312DD
:101DBE000313A000FF30A100FF30A200FF30A300EC
:101DCE007408A4007508A5007608A6007708A70079
:101DDE007008A4027108031C710FF62EF72EA502CF
:101DEE007208031C720FFC2EFD2EA6027308031C34
:101DFE00730F022F032FA7022408A007250803182C
:101E0E00250F0A2F0B2FA10726080318260F102FB8
:101E1E00112FA20727080318270AA3072308F30088
:101E2E002208F2002108F1002008F0008030A00006
:101E3E002008F806FB09FB0A7B08031D272F282F15
:101E4E00452F0130F007003003180130F107003044
:101E5E0003180130F207003003180130F307452F45
:101E6E007408F0027508031C750FF1027608031C46
:101E7E00760FF2027708031C770FF30273087204D1
:101E8E0071047004031D4C2F4D2F7B2F7B08031DF7
:101E9E00512F522F7B2F0030F3000030F200003014
:101EAE00F1000030F000FF2F013083120313A00069
:101EBE000310F00DF10DF20DF30DA00B5F2FFB1FB4
:101ECE00692F6A2F6B2F70147B1C6E2F6F2F722F42
:101EDE000314FB0D742F0310FB0D7A080319782FD2
:101EEE00792F7B2F0130FA02F21F7E2F7F2F5B2F6F
:101EFE00F901FB1F832F842F922F7B087F39031943
:101F0E00892F8A2F8D2FF901F90A922F701C902F8D
:101F1E00912F922F8A2F79080319962F972FCD2F55
:101F2E000130F007003003180130F10700300318BC
:101F3E000130F207003003180130F307731CA82F8D
:101F4E00A92FCD2F700883120313A0007108A100D2
:101F5E007208A2007308A3000130A400230DA30C85
:101F6E00A20CA10CA00CA40BB52F2308F300220881
:101F7E00F2002108F1002008F0007A0A0319C82F98
:101F8E00C92FCD2F0130A0002008FA077A0A0319B5
:101F9E00D12FD22FD72F7A08031DD62FD72FE52F6B
:101FAE000030F3000030F2000030F1000030F0009D
:101FBE007A08031DE32FE42FE52FF8017A1CE82F92
:101FCE00E92FEB2FF217F12F7F3083120313A000AE
:101FDE002008F2057A0883120313A0000310200CC8
:101FEE00A1002108F300F81FFD2FFE2FFF2FF3177E
:021FFE000800D9
:102F8C0001300A168A11EC270A168A1108000A1653
:102F9C008A11DF270A168A118316031311140800ED
:102FAC000A168A11DF270A168A11831603131115C4
:102FBC000800831603131419E42FE52FDF2F1108D3
:102FCC001F39031DEA2FEB2FDF2F0800F2008312AD
:102FDC00031306137208880086170630F100303090
:102FEC00F000F00BF72FF10BF72F000083120313F7
:042FFC008613080030
:04400E00D4E0FFFFFC
:00000001FF
